:100000000C9495000C94BD000C94BD000C94BD00A4
:100010000C94BD000C94BD000C94BD000C94BD006C
:100020000C94BD000C94BD000C94BD000C94BD005C
:100030000C94BD000C94BD000C94BD000C94BD004C
:100040000C9414040C94BD000C9459060C948B066B
:100050000C94BD000C94BD000C94BD000C94BD002C
:100060000C94BD000C94BD006661696C65642E0043
:1000700029002C20006F6B2E20283078004F7468E8
:100080006572206E6F646520616464726573733A93
:10009000200054686973206E6F6465206164647227
:1000A0006573733A20005D002C20002C20004F6205
:1000B0006972524632344E6574776F726B205458B1
:1000C00020696E69742E2E2E205B0000000008004F
:1000D000020100000304070000000000000000010E
:1000E00002040810204080010204081020010204CC
:1000F000081020040404040404040402020202029E
:100100000203030303030300000000250028002B63
:100110000000000000240027002A0000DB01820309
:100120008D039803A6030904BB0611241FBECFEF5D
:10013000D8E0DEBFCDBF11E0A0E0B1E0EEE5F0E138
:1001400002C005900D92A43DB107D9F722E0A4EDBD
:10015000B1E001C01D92A63AB207E1F710E0C5E98F
:10016000D0E004C02197FE010E942708CE38D107B5
:10017000C9F70E94F6070C942D080C94000026E0A5
:1001800040E052EC61E070E089E092E00E94F4050A
:100190006EEA70E089E092E00E94280760E071E07A
:1001A00089E092E00E944C076BEA70E089E092E0FF
:1001B0000E9428076EE771E089E092E00E944C07F8
:1001C00068EA70E089E092E00E9428076AE871E03E
:1001D00089E092E00E944C0766EA70E089E092E0D4
:1001E0000E94590762E970E089E092E00E942807C6
:1001F00040E150E061E070E089E092E00E94DF07BA
:100200006DE770E089E092E00E94280740E150E04D
:1002100060E070E089E092E00E94DF070E944C03FA
:1002200085ED91E00E94EA0141E050E06AE584ED4D
:1002300091E00C94F6018F929F92AF92BF92CF9271
:10024000DF92EF92FF92CF93DF93CDB7DEB72F9778
:100250000FB6F894DEBF0FBECDBF6B017C01490124
:100260005A01AE014F5F5F4F89E0FA0111928A9502
:10027000E9F782E08983CA82DB82EC82FD828E828A
:100280009F82A886B9861D861C8629E030E0BE01C3
:10029000665F7F4F84ED91E00E94E8028823F9F0C9
:1002A00065E770E089E092E00E94280720E130E0F5
:1002B000B501A40189E092E00E94B40762E770E012
:1002C00089E092E00E9428072AE030E0B701A60109
:1002D00089E092E00E94B40760E770E002C068E63F
:1002E00070E089E092E00E9459072F960FB6F894CB
:1002F000DEBF0FBECDBFDF91CF91FF90EF90DF90BB
:10030000CF90BF90AF909F908F900895CF93DF9341
:10031000CDB7DEB72F970FB6F894DEBF0FBECDBFB7
:1003200084ED91E00E94070284ED91E00E94450275
:100330008823C1F129E030E0AE014F5F5F4FBE017D
:10034000665F7F4F84ED91E00E945D028823C1F0DB
:1003500063E971E089E092E00E944C0740E150E0DF
:10036000698189E092E00E94C1072E813F81488522
:1003700059856A817B818C819D810E941B01D4CF2C
:100380006AE971E089E092E00E944C0784ED91E017
:100390000E945A0240E150E0682F89E092E00E94FA
:1003A000C807C2CF2F960FB6F894DEBF0FBECDBFE1
:1003B000DF91CF91089548E050E067E070E085ED6F
:1003C00091E00E94E90165ED71E084ED91E00C940B
:1003D000F3010895089595BF84BF63BF089595BF45
:1003E00084BF83B708951092D801089515BE81E0A7
:1003F00084BF63BF15BE82E084BF53BF15BE83E0D8
:1004000084BF43BF4093D6015093D701089580E045
:10041000089515BE85E884BF83B70895DF92EF92F3
:10042000FF920F931F93CF93DF9300D000D000D0A3
:10043000CDB7DEB70E9409028730B8F08E010F5F9A
:100440001F4F86E8E82EF12C96E0D92ED00EC7017A
:100450000E94EF01F80181938F01FFEFEF1AFF0A6D
:10046000D012F5CF8B819C8102C08FEF9FEF269633
:100470000FB6F894DEBF0FBECDBFDF91CF911F91B5
:100480000F91FF90EF90DF9008950E940E029C0163
:100490002F3F8FEF380721F481E08093D80108C007
:1004A00081E04091D6015091D7012417350709F01A
:1004B00080E008958091D80108954F925F926F92E5
:1004C0007F928F929F92AF92BF92CF92DF92EF92E4
:1004D000FF920F931F93CF93DF9300D000D000D0F3
:1004E000CDB7DEB77C013B01042F552E49010E9498
:1004F0000902182F873010F482E00FC0C7010E9454
:100500000E022091D6013091D7018217930751F046
:1005100015BE85E884BF13BE84E08093D80180E0D7
:1005200090E03FC0CE0101967C016C0196E8A92EB7
:10053000B12C26E0422E4E0CC5010E94EF01F601BF
:1005400081936F01FFEFAF1ABF0A4C10F5CF86E021
:10055000F701D30101900D928A95E1F71650812F92
:1005600090E08815990508F0182DB02EE02EF52C96
:100570008CE8C82ED12C8E2D8B19811750F4C60112
:100580000E94EF01F70181937F01FFEFCF1ADF0A8D
:10059000F2CF15BE85E884BF13BE1092D801812F1B
:1005A00090E026960FB6F894DEBF0FBECDBFDF9168
:1005B000CF911F910F91FF90EF90DF90CF90BF9060
:1005C000AF909F908F907F906F905F904F90089525
:1005D000AF92BF92CF92DF92EF92FF920F931F9351
:1005E000CF93DF93CDB7DEB728970FB6F894DEBF71
:1005F0000FBECDBF6B0159018091D6019091D701FB
:10060000FB0191838083C90106969583848386E0EC
:10061000DE01119601900D928A95E1F7CE010196C7
:100620007C0105E010E0F70161917F01C8014F8373
:1006300058870E94EB010F5F1F4F4F8158850B3089
:10064000110589F77A01AE0CBF1CEA14FB0449F0CE
:10065000F70161917F01C8010E94EB010F5F1F4FFD
:10066000F4CFF601848115BE94E094BF83BF15BE1C
:1006700014BE81E083BF28960FB6F894DEBF0FBE8C
:10068000CDBFDF91CF911F910F91FF90EF90DF9041
:10069000CF90BF90AF900895CF93CFB7F89480914B
:1006A000D901811127C0EDEFF0E08491E9EEF0E08F
:1006B0009491E82FF0E0EE0FFF1FEF5EFE4FA59143
:1006C000B491EC91E92321F461E08AE00E94FE04F8
:1006D00061E08AE00E94C2048CB580618CBD8CB55B
:1006E00080648CBD61E08DE00E94C20461E08BE01B
:1006F0000E94C2048091D9018F5F8093D901CFBF3E
:10070000CF9108950F9300E020E040E060E08AED93
:1007100091E00E94FD030F9108950F9300E020E007
:1007200040E060E080EE91E00E94FD030F910895AB
:100730000F9300E020E040E060E08EEE91E00E9448
:10074000FD0386EE91E00F910C94F3030F9300E00C
:1007500020E040E060E084EF91E00E94FD030F9113
:1007600008958F929F92AF92BF92CF92DF92EF92B5
:10077000FF920F931F93CF93DF937C018B016C014A
:1007800082E0C80ED11C4701E5E08E0E911CC0E04E
:10079000D0E0F60161916F014AE050E0C8010E948B
:1007A000C1075C016EE2C8010E944E078A0D9B1DC5
:1007B000C80FD91FC814D90461F74AE050E0F70107
:1007C0006581C8010E94C1078C0F9D1FDF91CF91E9
:1007D0001F910F91FF90EF90DF90CF90BF90AF905F
:1007E0009F908F90089520EB31E0FC0131832083AE
:1007F000128213821482158208950F93FC0180EBFC
:1008000091E09183808362834383248305830F91E6
:100810000895EAEFF1E080EB91E09183808312820A
:1008200013821482158208951F920F920FB60F92B1
:1008300011242F933F938F939F93AF93BF938091F6
:10084000010290910202A0910302B0910402309142
:10085000000223E0230F2D3720F40196A11DB11DC6
:1008600005C026E8230F0296A11DB11D20930002AA
:100870008093010290930202A0930302B0930402BA
:100880008091050290910602A0910702B0910802A2
:100890000196A11DB11D8093050290930602A093BD
:1008A0000702B0930802BF91AF919F918F913F9142
:1008B0002F910F900FBE0F901F901895789484B5CC
:1008C000826084BD84B5816084BD85B5826085BD4C
:1008D00085B5816085BDEEE6F0E080818160808332
:1008E000E1E8F0E010828081826080838081816015
:1008F0008083E0E8F0E0808181608083E1EBF0E0DC
:10090000808184608083E0EBF0E08081816080837F
:10091000EAE7F0E080818460808380818260808368
:100920008081816080838081806880831092C10093
:100930000895833081F028F4813099F08230A1F05D
:1009400008958730A9F08830B9F08430D1F48091CF
:1009500080008F7D03C0809180008F77809380001E
:10096000089584B58F7702C084B58F7D84BD0895C6
:100970008091B0008F7703C08091B0008F7D80930D
:10098000B0000895CF93DF9390E0FC01E152FF4F58
:100990002491FC01ED50FF4F8491882361F190E098
:1009A000880F991FFC01EF5EFE4FC591D491FC01A9
:1009B000E95FFE4FA591B491611109C09FB7F8940A
:1009C0008881209582238883EC912E230BC062308E
:1009D00061F49FB7F8943881822F809583238883B0
:1009E000EC912E2B2C939FBF06C08FB7F894E88113
:1009F0002E2B28838FBFDF91CF9108951F93CF9324
:100A0000DF93282F30E0F901E553FF4F8491F9017E
:100A1000E152FF4FD491F901ED50FF4FC491CC2327
:100A2000C9F0162F81110E949904EC2FF0E0EE0F0F
:100A3000FF1FE95FFE4FA591B4918FB7F894111194
:100A400005C09C91ED2FE095E92302C0EC91ED2BC0
:100A5000EC938FBFDF91CF911F910895FC01918D91
:100A6000228D892F90E0805C9F4F821B91098F73AC
:100A700099270895FC01918D828D981731F0828D10
:100A8000E80FF11D858D90E008958FEF9FEF089599
:100A9000FC01918D828D981761F0828DDF01A80F86
:100AA000B11D5D968C91928D9F5F9F73928F90E0A8
:100AB00008958FEF9FEF089581EB96E0892B49F021
:100AC00080E090E0892B29F00E94B10681110C94FE
:100AD00000000895FC01848DDF01A80FB11DA35A09
:100AE000BF4F2C91848D90E001968F739927848F4E
:100AF000A689B7892C93A089B1898C9180648C9345
:100B0000938D848D981306C00288F389E02D80812F
:100B10008F7D80830895CF93DF93EC01888D8823A8
:100B2000C9F0EA89FB89808185FD05C0A889B9895A
:100B30008C9186FD0FC00FB607FCF5CF808185FF35
:100B4000F2CFA889B9898C9185FFEDCFCE010E94A3
:100B50006A05E7CFDF91CF910895EF92FF920F934F
:100B60001F93CF93DF93EC0181E0888F9B8D8C8D59
:100B7000981305C0E889F989808185FD24C0F62E87
:100B80000B8D10E00F5F1F4F0F731127E02E8C8D20
:100B9000E8120CC00FB607FCFACFE889F98980810A
:100BA00085FFF5CFCE010E946A05F1CF8B8DFE0146
:100BB000E80FF11DE35AFF4FF0820B8FEA89FB89A2
:100BC0008081806207C0EE89FF896083E889F989A6
:100BD00080818064808381E090E0DF91CF911F91DC
:100BE0000F91FF90EF900895CF92DF92EF92FF92D6
:100BF0001F93CF93DF93EC016A017B01122FE889E9
:100C0000F98982E080834115514E61057105B1F08B
:100C100060E079E08DE390E0A70196010E9405086D
:100C2000DA01C9010197A109B109B695A795979570
:100C30008795AC01411580E15807A8F0E889F9894A
:100C4000108260E874E88EE190E0A70196010E94AE
:100C50000508BA01A9014150510961097109769548
:100C6000679557954795EC85FD855083EE85FF8503
:100C70004083188EEC89FD891083EA89FB89808185
:100C800080618083EA89FB89808188608083EA892A
:100C9000FB89808180688083EA89FB8980818F7DE0
:100CA0008083DF91CF911F91FF90EF90DF90CF90E5
:100CB00008951F920F920FB60F9211242F938F93C6
:100CC0009F93EF93FF93E0911902F0911A028081B4
:100CD000E0911F02F091200282FD12C0908180916C
:100CE00022028F5F8F7320912302821751F0E091CF
:100CF0002202F0E0E75FFD4F958F8093220201C052
:100D00008081FF91EF919F918F912F910F900FBE56
:100D10000F901F9018951F920F920FB60F921124EB
:100D20002F933F934F935F936F937F938F939F93F3
:100D3000AF93BF93EF93FF9389E092E00E946A051F
:100D4000FF91EF91BF91AF919F918F917F916F91A3
:100D50005F914F913F912F910F900FBE0F901F9079
:100D6000189589E092E00E942E0521E0892B09F474
:100D700020E0822F0895E9E0F2E01382128288EEEB
:100D800093E0A0E0B0E084839583A683B78386EBED
:100D900091E09183808385EC90E09587848784EC53
:100DA00090E09787868780EC90E0918B808B81EC38
:100DB00090E0938B828B82EC90E0958B848B86EC19
:100DC00090E0978B868B118E128E138E148E089561
:100DD000CF92DF92EF92FF920F931F93CF93DF9307
:100DE0006C017A018B01C0E0D0E0CE15DF0589F0FF
:100DF000D8016D918D01D601ED91FC910190F081AA
:100E0000E02DC6010995892B11F47E0102C02196BF
:100E1000ECCFC701DF91CF911F910F91FF90EF9021
:100E2000DF90CF9008956115710579F0FB01019075
:100E30000020E9F73197AF01461B570BDC01ED911C
:100E4000FC910280F381E02D099480E090E0089508
:100E5000EF92FF920F931F93CF93DF938C017B014F
:100E6000C0E0D0E0F701EC0FFD1F6491662361F054
:100E7000D801ED91FC910190F081E02DC801099518
:100E8000892B11F02196EECFCE01DF91CF911F91EA
:100E90000F91FF90EF9008950C941307DC01ED91F2
:100EA000FC910190F081E02D099462EC71E00C94CA
:100EB00013070F931F93CF93DF93EC010E94280732
:100EC0008C01CE010E945507800F911FDF91CF91B9
:100ED0001F910F9108954F925F926F927F92EF92C0
:100EE000FF920F931F93CF93DF93CDB7DEB7A197F8
:100EF0000FB6F894DEBF0FBECDBF7C01FA01CB0167
:100F000019A2223008F42AE08E010F5D1F4F422EF5
:100F1000512C612C712CBF01A30192010E94050884
:100F2000F901CA01015011096A3014F4605D01C071
:100F3000695CD8016C93232B242B252B61F7B80116
:100F4000C7010E941307A1960FB6F894DEBF0FBE2B
:100F5000CDBFDF91CF911F910F91FF90EF907F90C8
:100F60006F905F904F9008952115310541F4DC0199
:100F7000ED91FC910190F081E02D642F09940C9487
:100F80006B079A01462F50E060E070E00C94B407C4
:100F90000F931F93CF93DF93EC019A01462F50E0FC
:100FA00060E070E00E94B4078C01CE010E945507FA
:100FB000800F911FDF91CF911F910F9108950F9393
:100FC0001F93CF93DF93EC019A01AB0160E070E0D7
:100FD0000E94B4078C01CE010E945507800F911F1B
:100FE000DF91CF911F910F91089508950E945E04A3
:100FF0000E94F5070E94BF00CCE5D5E00E94860163
:101000002097E1F30E945C05F9CFA1E21A2EAA1BFA
:10101000BB1BFD010DC0AA1FBB1FEE1FFF1FA217A8
:10102000B307E407F50720F0A21BB30BE40BF50BA5
:10103000661F771F881F991F1A9469F7609570952E
:10104000809590959B01AC01BD01CF010895EE0FF5
:0E105000FF1F0590F491E02D0994F894FFCF56
:10105E00433A5C446F63756D656E747320616E64A4
:10106E002053657474696E67735C61707275737A00
:10107E006B6F5C4D6F6A6520646F6B756D656E741A
:10108E00795C41726475696E6F5C4F62697252462B
:10109E0032344E6574776F726B5F736572766572FC
:1010AE005F32303230303530385C4F6269725246C2
:1010BE0032344E6574776F726B5F736572766572DC
:1010CE005F32303230303530382E696E6F004D6100
:1010DE007920203820323032300031363A32383AE8
:1010EE00323100436F64653A20005265636965765C
:1010FE00696E67206572726F723A20000000000000
:10110E00B10300000000AD05E8062E0548053A05BE
:10111E008B050D0A006E616E00696E66006F766655
:04112E00002E00008F
:00000001FF
