:100000000C9497000C94BF000C94BF000C94BF009C
:100010000C94BF000C94BF000C94BF000C94BF0064
:100020000C94BF000C94BF000C94BF000C94BF0054
:100030000C94BF000C94BF000C94BF000C94BF0044
:100040000C947F040C94BF000C94C4060C94F60628
:100050000C94BF000C94BF000C94BF000C94BF0024
:100060000C94BF000C94BF006661696C65642E003F
:1000700029002C200053656E64206F6B2E202830E1
:1000800078004F74686572206E6F646520616464E7
:10009000726573733A200054686973206E6F6465EB
:1000A00020616464726573733A20005D002C200047
:1000B0002C20004F626972524632344E6574776F5D
:1000C000726B20525820696E69742E2E2E205B00B0
:1000D0000000000800020100000304070000000007
:1000E0000000000001020408102040800102040802
:1000F0001020010204081020040404040404040471
:1001000002020202020203030303030300000000D1
:10011000250028002B0000000000240027002A00F2
:100120003502DC03E703F2030004740426071124FC
:100130001FBECFEFD8E0DEBFCDBF11E0A0E0B1E041
:10014000E8E5F1E102C005900D92A23FB107D9F7B1
:1001500022E0A2EFB1E001C01D92AA3CB207E1F794
:1001600010E0C7E9D0E004C02197FE010E94A40876
:10017000C039D107C9F70E9473080C94AA080C94DF
:100180000000CF92DF92EF92FF92CF93DF93CDB733
:10019000DEB72F970FB6F894DEBF0FBECDBF0E941B
:1001A0000B046B017C01AE014F5F5F4F89E0FA01E8
:1001B00011928A95E9F781E08983CA82DB82EC8219
:1001C000FD828091F4019091F501A091F601B0912A
:1001D000F7018E839F83A887B98781E090E09D8790
:1001E0008C8729E030E0BE01665F7F4F88EF91E0A9
:1001F0000E9442038823E1F165E770E08DE292E01E
:100200000E9493074091F4015091F5016091F6012D
:100210007091F70120E130E08DE292E00E941F082A
:1002200062E770E08DE292E00E9493072AE030E0FE
:10023000B701A6018DE292E00E941F0860E770E01E
:100240008DE292E00E94C4078091F4019091F50143
:10025000A091F601B091F7010196A11DB11D809307
:10026000F4019093F501A093F601B093F70106C055
:1002700068E670E08DE292E00E94C4072F960FB608
:10028000F894DEBF0FBECDBFDF91CF91FF90EF900E
:10029000DF90CF90089526E040E052EC61E070E0FE
:1002A0008DE292E00E945F0663EB70E08DE292E0E7
:1002B0000E94930760E071E08DE292E00E94B70730
:1002C00060EB70E08DE292E00E9493076EE771E0D0
:1002D0008DE292E00E94B7076DEA70E08DE292E055
:1002E0000E9493076AE871E08DE292E00E94B707EE
:1002F0006BEA70E08DE292E00E94C40767E970E06B
:100300008DE292E00E94930740E150E060E070E0EF
:100310008DE292E00E944A0862E870E08DE292E08D
:100320000E94930740E150E061E070E08DE292E0CE
:100330000E944A080E94A60389EF91E00E944402AD
:1003400040E050E06AE588EF91E00E945002109290
:10035000F3011092F2010C94C100CF92DF92EF9260
:10036000FF92CF93DF93CDB7DEB72F970FB6F894F8
:10037000DEBF0FBECDBF88EF91E00E94610288EF23
:1003800091E00E949F02882309F462C029E030E0D6
:10039000AE014F5F5F4FBE01665F7F4F88EF91E018
:1003A0000E94B702882309F441C063E971E08DE23D
:1003B00092E00E94B70740E150E069818DE292E04F
:1003C0000E942C0863EA71E08DE292E00E94B70778
:1003D0004E815F816885798520E130E08DE292E091
:1003E0000E941F0861EB71E08DE292E00E94B70766
:1003F0004A815B816C817D812AE030E08DE292E070
:100400000E9460080E940B046B017C0120EDC20E6B
:1004100027E0D21EE11CF11C0E940B04C616D70671
:10042000E806F906C8F70E94C100A9CF68EB71E0A1
:100430008DE292E00E94B70788EF91E00E94B4023B
:1004400040E150E0682F8DE292E00E943308FFCF38
:100450002F960FB6F894DEBF0FBECDBFDF91CF91C0
:10046000FF90EF90DF90CF90089548E050E067E074
:1004700070E089EF91E00E94430269EF71E088EF3C
:1004800091E00C944D020895089595BF84BF63BF19
:10049000089595BF84BF83B708951092FC01089515
:1004A00015BE81E084BF63BF15BE82E084BF53BF29
:1004B00015BE83E084BF43BF4093FA015093FB0114
:1004C000089580E0089515BE85E884BF83B7089538
:1004D000DF92EF92FF920F931F93CF93DF9300D0A1
:1004E00000D000D0CDB7DEB70E9463028730B8F0ED
:1004F0008E010F5F1F4F86E8E82EF12C96E0D92E73
:10050000D00EC7010E944902F80181938F01FFEFCD
:10051000EF1AFF0AD012F5CF8B819C8102C08FEFBA
:100520009FEF26960FB6F894DEBF0FBECDBFDF91CA
:10053000CF911F910F91FF90EF90DF9008950E944F
:1005400068029C012F3F8FEF380721F481E08093F0
:10055000FC0108C081E04091FA015091FB01241791
:10056000350709F080E008958091FC0108954F92CD
:100570005F926F927F928F929F92AF92BF92CF9233
:10058000DF92EF92FF920F931F93CF93DF9300D0F0
:1005900000D000D0CDB7DEB77C013B01042F552E33
:1005A00049010E946302182F873010F482E00FC0C7
:1005B000C7010E9468022091FA013091FB01821765
:1005C000930751F015BE85E884BF13BE84E0809385
:1005D000FC0180E090E03FC0CE0101967C016C01FF
:1005E00096E8A92EB12C26E0422E4E0CC5010E94A1
:1005F0004902F60181936F01FFEFAF1ABF0A4C1059
:10060000F5CF86E0F701D30101900D928A95E1F7CD
:100610001650812F90E08815990508F0182DB02EFE
:10062000E02EF52C8CE8C82ED12C8E2D8B1981173D
:1006300050F4C6010E944902F70181937F01FFEF48
:10064000CF1ADF0AF2CF15BE85E884BF13BE109221
:10065000FC01812F90E026960FB6F894DEBF0FBE06
:10066000CDBFDF91CF911F910F91FF90EF90DF9061
:10067000CF90BF90AF909F908F907F906F905F9042
:100680004F900895AF92BF92CF92DF92EF92FF9278
:100690000F931F93CF93DF93CDB7DEB728970FB695
:1006A000F894DEBF0FBECDBF6B0159018091FA01F6
:1006B0009091FB01FB0191838083C901069695838C
:1006C000848386E0DE01119601900D928A95E1F710
:1006D000CE0101967C0105E010E0F70161917F01F8
:1006E000C8014F8358870E9445020F5F1F4F4F81FB
:1006F00058850B30110589F77A01AE0CBF1CEA143E
:10070000FB0449F0F70161917F01C8010E94450295
:100710000F5F1F4FF4CFF601848115BE94E094BFA4
:1007200083BF15BE14BE81E083BF28960FB6F89430
:10073000DEBF0FBECDBFDF91CF911F910F91FF9014
:10074000EF90DF90CF90BF90AF900895CF93CFB749
:10075000F8948091FD01811127C0E2E0F1E08491DD
:10076000EEEEF0E09491E82FF0E0EE0FFF1FEA5E6E
:10077000FE4FA591B491EC91E92321F461E08AE068
:100780000E94690561E08AE00E942D058CB58061B8
:100790008CBD8CB580648CBD61E08DE00E942D0520
:1007A00061E08BE00E942D058091FD018F5F8093B9
:1007B000FD01CFBFCF9108950F9300E020E040E00E
:1007C00060E08EEF91E00E9468040F9108950F930E
:1007D00000E020E040E060E084E092E00E946804F5
:1007E0000F9108950F9300E020E040E060E082E187
:1007F00092E00E9468048AE092E00F910C945E04FB
:100800000F9300E020E040E060E088E192E00E9489
:1008100068040F91089546B767B728B739B7862F90
:1008200090E0A0E0B0E0DC0199278827B42B832B6F
:10083000BC01CD01722B08958F929F92AF92BF920F
:10084000CF92DF92EF92FF920F931F93CF93DF939C
:100850007C018B016C0182E0C80ED11C4701E5E0F0
:100860008E0E911CC0E0D0E0F60161916F014AE06C
:1008700050E0C8010E942C085C016EE2C8010E9491
:10088000B9078A0D9B1DC80FD91FC814D90461F779
:100890004AE050E0F7016581C8010E942C088C0FE6
:1008A0009D1FDF91CF911F910F91FF90EF90DF90EF
:1008B000CF90BF90AF909F908F9008952EEC31E035
:1008C000FC013183208312821382148215820895E1
:1008D0000F93FC018EEC91E09183808362834383CC
:1008E000248305830F910895EEE1F2E08EEC91E010
:1008F00091838083128213821482158208951F923D
:100900000F920FB60F9211242F933F938F939F93C3
:10091000AF93BF938091250290912602A091270268
:10092000B09128023091240223E0230F2D3720F4C8
:100930000196A11DB11D05C026E8230F0296A11D39
:10094000B11D209324028093250290932602A09348
:100950002702B09328028091290290912A02A09147
:100960002B02B0912C020196A11DB11D809329028A
:1009700090932A02A0932B02B0932C02BF91AF91C7
:100980009F918F913F912F910F900FBE0F901F90CD
:100990001895789484B5826084BD84B5816084BDE7
:1009A00085B5826085BD85B5816085BDEEE6F0E0E8
:1009B000808181608083E1E8F0E010828081826044
:1009C0008083808181608083E0E8F0E080818160C5
:1009D0008083E1EBF0E0808184608083E0EBF0E0F5
:1009E000808181608083EAE7F0E080818460808399
:1009F0008081826080838081816080838081806843
:100A000080831092C1000895833081F028F48130F2
:100A100099F08230A1F008958730A9F08830B9F0BC
:100A20008430D1F4809180008F7D03C0809180005C
:100A30008F7780938000089584B58F7702C084B546
:100A40008F7D84BD08958091B0008F7703C0809121
:100A5000B0008F7D8093B0000895CF93DF9390E036
:100A6000FC01EC51FF4F2491FC01E850FF4F8491B1
:100A7000882361F190E0880F991FFC01EA5EFE4F28
:100A8000C591D491FC01E45FFE4FA591B491611131
:100A900009C09FB7F8948881209582238883EC91C0
:100AA0002E230BC0623061F49FB7F8943881822FF7
:100AB000809583238883EC912E2B2C939FBF06C0B7
:100AC0008FB7F894E8812E2B28838FBFDF91CF91C9
:100AD00008951F93CF93DF93282F30E0F901E0535F
:100AE000FF4F8491F901EC51FF4FD491F901E85087
:100AF000FF4FC491CC23C9F0162F81110E94040529
:100B0000EC2FF0E0EE0FFF1FE45FFE4FA591B491D4
:100B10008FB7F894111105C09C91ED2FE095E92352
:100B200002C0EC91ED2BEC938FBFDF91CF911F9121
:100B30000895FC01918D228D892F90E0805C9F4F5C
:100B4000821B91098F7399270895FC01918D828DE5
:100B5000981731F0828DE80FF11D858D90E0089592
:100B60008FEF9FEF0895FC01918D828D981761F0B2
:100B7000828DDF01A80FB11D5D968C91928D9F5FD4
:100B80009F73928F90E008958FEF9FEF08958CE10F
:100B900097E0892B49F080E090E0892B29F00E94B2
:100BA0001C0781110C9400000895FC01848DDF0165
:100BB000A80FB11DA35ABF4F2C91848D90E00196D0
:100BC0008F739927848FA689B7892C93A089B189BF
:100BD0008C9180648C93938D848D981306C00288C9
:100BE000F389E02D80818F7D80830895CF93DF93FB
:100BF000EC01888D8823C9F0EA89FB89808185FD15
:100C000005C0A889B9898C9186FD0FC00FB607FC75
:100C1000F5CF808185FFF2CFA889B9898C9185FFB6
:100C2000EDCFCE010E94D505E7CFDF91CF9108959A
:100C3000EF92FF920F931F93CF93DF93EC0181E02C
:100C4000888F9B8D8C8D981305C0E889F9898081E8
:100C500085FD24C0F62E0B8D10E00F5F1F4F0F7324
:100C60001127E02E8C8DE8120CC00FB607FCFACFCE
:100C7000E889F989808185FFF5CFCE010E94D505ED
:100C8000F1CF8B8DFE01E80FF11DE35AFF4FF0828B
:100C90000B8FEA89FB898081806207C0EE89FF891A
:100CA0006083E889F98980818064808381E090E0B5
:100CB000DF91CF911F910F91FF90EF900895CF9208
:100CC000DF92EF92FF921F93CF93DF93EC016A01C3
:100CD0007B01122FE889F98982E080834115514E0A
:100CE00061057105B1F060E079E08DE390E0A70166
:100CF00096010E948208DA01C9010197A109B10990
:100D0000B695A79597958795AC01411580E1580751
:100D1000A8F0E889F989108260E874E88EE190E033
:100D2000A70196010E948208BA01A9014150510908
:100D3000610971097695679557954795EC85FD850D
:100D40005083EE85FF854083188EEC89FD891083E2
:100D5000EA89FB89808180618083EA89FB898081BF
:100D600088608083EA89FB89808180688083EA8942
:100D7000FB8980818F7D8083DF91CF911F91FF90D0
:100D8000EF90DF90CF9008951F920F920FB60F92C1
:100D900011242F938F939F93EF93FF93E0913D0244
:100DA000F0913E028081E0914302F091440282FD85
:100DB00012C09081809146028F5F8F73209147020D
:100DC000821751F0E0914602F0E0E35DFD4F958F10
:100DD0008093460201C08081FF91EF919F918F9196
:100DE0002F910F900FBE0F901F9018951F920F928A
:100DF0000FB60F9211242F933F934F935F936F93EE
:100E00007F938F939F93AF93BF93EF93FF938DE265
:100E100092E00E94D505FF91EF91BF91AF919F9114
:100E20008F917F916F915F914F913F912F910F9093
:100E30000FBE0F901F9018958DE292E00E949905C9
:100E400021E0892B09F420E0822F0895EDE2F2E001
:100E50001382128288EE93E0A0E0B0E08483958351
:100E6000A683B78384ED91E09183808385EC90E045
:100E70009587848784EC90E09787868780EC90E064
:100E8000918B808B81EC90E0938B828B82EC90E055
:100E9000958B848B86EC90E0978B868B118E128ECF
:100EA000138E148E0895CF92DF92EF92FF920F93DC
:100EB0001F93CF93DF936C017A018B01C0E0D0E0E8
:100EC000CE15DF0589F0D8016D918D01D601ED9128
:100ED000FC910190F081E02DC6010995892B11F458
:100EE0007E0102C02196ECCFC701DF91CF911F9107
:100EF0000F91FF90EF90DF90CF90089561157105ED
:100F000079F0FB0101900020E9F73197AF01461B12
:100F1000570BDC01ED91FC910280F381E02D0994E7
:100F200080E090E00895EF92FF920F931F93CF938C
:100F3000DF938C017B01C0E0D0E0F701EC0FFD1FD7
:100F40006491662361F0D801ED91FC910190F081EC
:100F5000E02DC8010995892B11F02196EECFCE0125
:100F6000DF91CF911F910F91FF90EF9008950C9416
:100F70007E07DC01ED91FC910190F081E02D099458
:100F800060EE71E00C947E070F931F93CF93DF9375
:100F9000EC010E9493078C01CE010E94C007800FD4
:100FA000911FDF91CF911F910F9108954F925F9202
:100FB0006F927F92EF92FF920F931F93CF93DF93E5
:100FC000CDB7DEB7A1970FB6F894DEBF0FBECDBF89
:100FD0007C01FA01CB0119A2223008F42AE08E012B
:100FE0000F5D1F4F422E512C612C712CBF01A301AC
:100FF00092010E948208F901CA01015011096A3068
:1010000014F4605D01C0695CD8016C93232B242B20
:10101000252B61F7B801C7010E947E07A1960FB684
:10102000F894DEBF0FBECDBFDF91CF911F910F911E
:10103000FF90EF907F906F905F904F9008952115F3
:10104000310541F4DC01ED91FC910190F081E02D3E
:10105000642F09940C94D6079A01462F50E060E063
:1010600070E00C941F080F931F93CF93DF93EC0154
:101070009A01462F50E060E070E00E941F088C014A
:10108000CE010E94C007800F911FDF91CF911F9169
:101090000F9108950F931F93CF93DF93EC019A0163
:1010A000AB0160E070E00E941F088C01CE010E943D
:1010B000C007800F911FDF91CF911F910F9108956D
:1010C0000F931F93CF93DF93EC010E941F088C01B5
:1010D000CE010E94C007800F911FDF91CF911F9119
:1010E0000F91089508950E94C9040E9472080E94F9
:1010F0004B01C7ECD5E00E94AD012097E1F30E94BF
:10110000C705F9CFA1E21A2EAA1BBB1BFD010DC01A
:10111000AA1FBB1FEE1FFF1FA217B307E407F507A7
:1011200020F0A21BB30BE40BF50B661F771F881F83
:10113000991F1A9469F760957095809590959B0119
:10114000AC01BD01CF010895EE0FFF1F0590F49192
:08115000E02D0994F894FFCF93
:10115800433A5C446F63756D656E747320616E64A9
:101168002053657474696E67735C61707275737A05
:101178006B6F5C4D6F6A6520646F6B756D656E741F
:10118800795C41726475696E6F5C4F626972524630
:1011980032344E6574776F726B5F636C69656E7419
:1011A8005F32303230303530385C4F6269725246C7
:1011B80032344E6574776F726B5F636C69656E74F9
:1011C8005F32303230303530382E696E6F004D6105
:1011D8007920203820323032300031363A34393AEA
:1011E800353000526563656976656420636F6465B0
:1011F8003A20002C207061636B65743A20233078A4
:10120800002C2061743A2000526563696576696E26
:1012180067206572726F723A2000000000001C049B
:1012280000000000180653079905B305A505F60543
:101238000D0A006E616E00696E66006F7666002E9C
:021248000000A4
:00000001FF
