:100000000C949C000C94C4000C94C4000C94C40088
:100010000C94C4000C94C4000C94C4000C94C40050
:100020000C94C4000C94C4000C94C4000C94C40040
:100030000C94C4000C94C4000C94C4000C94C40030
:100040000C94C5040C94C4000C9475060C94A7067B
:100050000C94C4000C94C4000C94C4000C94C40010
:100060000C94C4000C94C4002E004D7920495020FB
:10007000616464726573733A20005D0031323A3412
:10008000343A3534002C2000417072202032203266
:10009000303230002C2000433A5C446F63756D654C
:1000A0006E747320616E642053657474696E677337
:1000B0005C61707275737A6B6F5C4D6F6A652064FA
:1000C0006F6B756D656E74795C41726475696E6F86
:1000D0005C4F6269724574685F75647073657276AF
:1000E00065725F32303230303430325C4F62697268
:1000F0004574685F7564707365727665725F3230DF
:100100003230303430322E696E6F006F6269722087
:1001100065746820756470207365727665722069F5
:100120006E69742E2E2E205B0000C600D801E301FC
:1001300033025704BA04D70611241FBECFEFD8E00C
:10014000DEBFCDBF11E0A0E0B1E0E0E7F0E102C02A
:1001500005900D92A036B107D9F722E0A0E6B1E0F4
:1001600001C01D92A13BB207E1F710E0CCE9D0E05D
:1001700004C02197FE010E942808C539D107C9F79C
:100180000E94F7070C9436080C9400000F9300E0CF
:1001900020E040E060E08FED91E00E94AE0480E658
:1001A00091E00F910C943D04EF92FF920F931F93F7
:1001B000CF93DF9300D000D000D0CDB7DEB726E0DC
:1001C00040E052EC61E070E084E192E00E941006B1
:1001D0006BE071E084E192E00E94440767E970E01F
:1001E00084E192E00E94440764E970E084E192E0D7
:1001F0000E94440768E870E084E192E00E944407AE
:1002000065E870E084E192E00E9444076CE770E0EA
:1002100084E192E00E9444076AE770E084E192E0A2
:100220000E94750710EAE12E1FE0F12E00E010E0B9
:1002300020E63AEE40E050E062E071E081EF91E0CC
:100240000E94EE016AE670E084E192E00E944407B9
:100250008E010D5F1F4F7E0187E0E80EF11C61EFFC
:1002600071E0CE0101960E94F101F80161918F01C8
:100270004AE050E084E192E00E94EF0768E670E017
:1002800084E192E00E9444070E151F0541F784E1C6
:1002900092E00E947107609100017091010180E677
:1002A00091E00E949D0226960FB6F894DEBF0FBE25
:1002B000CDBFDF91CF911F910F91FF90EF900895E7
:1002C000EF92FF920F931F93CF93DF9300D000D054
:1002D00000D0CDB7DEB780E691E00E94C6031816C5
:1002E00019060CF050C044E650E06BE771E080E680
:1002F00091E00E945E037C0168E071E084E192E09D
:100300000E946807F701E558FE4F10826BE771E025
:1003100084E192E00E9487070BE711E0C8018B5748
:1003200091408E159F054CF4F801808190E00E9469
:100330002E08F80181938F01F1CF40917401509103
:1003400075018DE391E09A8389838091700190918A
:100350007101A0917201B09173018B839C83AD8375
:10036000BE83BE016F5F7F4F80E691E00E94C802AE
:10037000A7016BE771E080E691E00E94080380E648
:1003800091E00E94B10226960FB6F894DEBF0FBE30
:10039000CDBFDF91CF911F910F91FF90EF90089506
:1003A0009CBF8BBF6ABF08959CBF8BBF8AB708955F
:1003B0000F9300E020E040E060E085EE91E00E94D5
:1003C000AE040F9108950F9300E020E040E060E05C
:1003D0008BEE91E00E94AE040F91089580E090E0D2
:1003E0000895EF92FF920F93CF93DF93CDB7DEB7CF
:1003F00028970FB6F894DEBF0FBECDBF7C010E94D8
:10040000A4048AE090E00E94D401082F89E090E0E3
:100410000E94D401282F88E090E028870E94D40110
:10042000482F87E090E04F830E94D401682F2885F1
:100430004F81CE0101960E94AE048B819C81AD81DB
:10044000BE81F70182839383A483B583C701289675
:100450000FB6F894DEBF0FBECDBFDF91CF910F91E5
:10046000FF90EF9008950F9300E020E040E060E0FF
:1004700089EF91E00E94AE0481EF91E00F910C941E
:10048000A404DC01ED91FC91008CF18DE02D099428
:100490002DE331E0FC0131832083FB014089518948
:1004A00062897389FC014283538364837583089551
:1004B000FC01848995890895DC01ED91FC91068801
:1004C000F789E02D099408950895CF93DF931F9243
:1004D000CDB7DEB76983DC01ED91FC910280F38139
:1004E000E02D41E050E0BE016F5F7F4F09950F9016
:1004F000DF91CF910895CF93DF931F92CDB7DEB7F1
:10050000DC01ED91FC91008CF18DE02D41E050E09B
:10051000BE016F5F7F4F0995181619061CF489817B
:1005200090E002C08FEF9FEF0F90DF91CF91089581
:1005300080E090E0089581E00895CF93C62F672F63
:100540008BE090E00E94D0016C2F8CE090E00E9444
:10055000D00163E080E090E00E94D00181E0CF9183
:1005600008956FEF80E090E00E94D00162E080E0AB
:1005700090E00E94D00180E090E0089560E085EE78
:1005800097E00E94D00160E086EE97E00C94D001E5
:10059000EF92FF920F931F93CF93DF9300D0CDB7CD
:1005A000DEB7FB0102811381F480E58061E080E029
:1005B00090E04A8359830E94D001602F8DE090E043
:1005C0000E94D001612F8EE090E00E94D0016F2D3B
:1005D0008FE090E00E94D0016E2D80E190E00E94BB
:1005E000D0015981652F81E190E00E94D0014A81BC
:1005F000642F82E190E00E94D00181E090E00F90B2
:100600000F90DF91CF911F910F91FF90EF90089580
:100610008F929F92AF92BF92CF92DF92EF92FF9212
:100620000F931F93CF93DF9300D0CDB7DEB77A013E
:1006300083E190E069837A830E94D401182F84E1DA
:1006400090E00E94D401212F30E0322F222749016F
:10065000882A6981062F7A81172F640185E1C80EE7
:10066000D11C5801AE0CBF1C0A151B0551F0F80136
:1006700061918F01C6010E94D001FFEFCF1ADF0AFE
:10068000F3CFE80CF91C6F2D83E190E00E94D001BC
:100690006E2D84E190E00E94D00180E090E00F9008
:1006A0000F90DF91CF911F910F91FF90EF90DF900E
:1006B000CF90BF90AF909F908F9008958F929F9210
:1006C000AF92BF92CF92DF92EF92FF920F931F9360
:1006D000CF93DF9300D0CDB7DEB77A0187EE97E0F6
:1006E00069837A830E94D401082F88EE97E00E94E4
:1006F000D40110E0102F0027082B85EE97E00E9410
:10070000D401D82E86EE97E00E94D4012D2D30E042
:10071000322F2227282B4901801A910A69817A8178
:100720008E149F0408F04701680187E1C81A88EF1A
:10073000D80A7B015B01A80CB91CEA14FB0451F038
:10074000C6010E94D401F70181937F01FFEFCF1A08
:10075000DF0AF3CF080D191D612F87EE97E00E9485
:10076000D001602F88EE97E00E94D001C4010F9065
:100770000F90DF91CF911F910F91FF90EF90DF903D
:10078000CF90BF90AF909F908F900895AF92BF92FF
:10079000CF92DF92EF92FF920F931F93CF93DF934D
:1007A000CDB7DEB728970FB6F894DEBF0FBECDBF2A
:1007B0006C0185EE97E00E94D401A82E86EE97E0AA
:1007C0000E94D401E82E87EE97E00E94D401B82E53
:1007D00088EE97E00E94D401F82E80E190E00E941C
:1007E000D401082F8FE090E00E94D401282F8EE0E2
:1007F00090E028870E94D401482F8DE090E04F833D
:100800000E94D401682F28854F81CE0101960E9455
:10081000AE048B819C81AD81BE81F601808B918B72
:10082000A28BB38B81E190E00E94D401182F82E16A
:1008300090E00E94D401212F30E0322F2227282B74
:10084000F601358B248B4E2D50E0CA019A292F2DAD
:1008500030E03B29821B930B28960FB6F894DEBF3D
:100860000FBECDBFDF91CF911F910F91FF90EF9001
:10087000DF90CF90BF90AF900895CF93DF93EC01BE
:100880001B821A8288EE93E0A0E0B0E08C839D8307
:10089000AE83BF8387E191E099838883CE010E9672
:1008A0000E94A40484E0888FDF91CF9108950F9374
:1008B00000E020E040E060E08FEF91E00E94AE04B5
:1008C0000F9108958F929F92AF92BF92CF92DF9235
:1008D000EF92FF920F931F93CF93DF937C018B01D5
:1008E0006C0182E0C80ED11C4701E5E08E0E911C20
:1008F000C0E0D0E0F60161916F014AE050E0C8012C
:100900000E94EF075C016EE2C8010E946A078A0D2F
:100910009B1DC80FD91FC814D90461F74AE050E0E5
:10092000F7016581C8010E94EF078C0F9D1FDF91C1
:10093000CF911F910F91FF90EF90DF90CF90BF90DC
:10094000AF909F908F9008952DE331E0FC013183AB
:100950002083128213821482158208950F93FC0162
:100960008DE391E0918380836283438324830583B5
:100970000F910895E5E0F2E08DE391E091838083AB
:10098000128213821482158208951F920F920FB65D
:100990000F9211242F933F938F939F93AF93BF9305
:1009A00080910C0290910D02A0910E02B0910F0265
:1009B00030910B0223E0230F2D3720F40196A11D67
:1009C000B11D05C026E8230F0296A11DB11D20937D
:1009D0000B0280930C0290930D02A0930E02B09331
:1009E0000F028091100290911102A0911202B09119
:1009F00013020196A11DB11D809310029093110264
:100A0000A0931202B0931302BF91AF919F918F9167
:100A10003F912F910F900FBE0F901F9018957894D3
:100A200084B5826084BD84B5816084BD85B58260F3
:100A300085BD85B5816085BDEEE6F0E08081816091
:100A40008083E1E8F0E01082808182608083808191
:100A500081608083E0E8F0E0808181608083E1EB69
:100A6000F0E0808184608083E0EBF0E08081816051
:100A70008083EAE7F0E08081846080838081826007
:100A800080838081816080838081806880831092F0
:100A9000C1000895FC01918D228D892F90E0805C2A
:100AA0009F4F821B91098F7399270895FC01918DA7
:100AB000828D981731F0828DE80FF11D858D90E0C1
:100AC00008958FEF9FEF0895FC01918D828D981707
:100AD00061F0828DDF01A80FB11D5D968C91928D22
:100AE0009F5F9F73928F90E008958FEF9FEF08951F
:100AF0008DEC96E0892B49F080E090E0892B29F07D
:100B00000E94CD0681110C9400000895FC01848D93
:100B1000DF01A80FB11DA35ABF4F2C91848D90E027
:100B200001968F739927848FA689B7892C93A08902
:100B3000B1898C9180648C93938D848D981306C0B9
:100B40000288F389E02D80818F7D80830895CF9383
:100B5000DF93EC01888D8823C9F0EA89FB898081C5
:100B600085FD05C0A889B9898C9186FD0FC00FB697
:100B700007FCF5CF808185FFF2CFA889B9898C91D8
:100B800085FFEDCFCE010E948605E7CFDF91CF91A3
:100B90000895EF92FF920F931F93CF93DF93EC0191
:100BA00081E0888F9B8D8C8D981305C0E889F98929
:100BB000808185FD24C0F62E0B8D10E00F5F1F4F46
:100BC0000F731127E02E8C8DE8120CC00FB607FCB6
:100BD000FACFE889F989808185FFF5CFCE010E949F
:100BE0008605F1CF8B8DFE01E80FF11DE35AFF4F13
:100BF000F0820B8FEA89FB898081806207C0EE89D1
:100C0000FF896083E889F98980818064808381E03D
:100C100090E0DF91CF911F910F91FF90EF90089599
:100C2000CF92DF92EF92FF921F93CF93DF93EC016D
:100C30006A017B01122FE889F98982E080834115DE
:100C4000514E61057105B1F060E079E08DE390E00F
:100C5000A70196010E940608DA01C9010197A109BE
:100C6000B109B695A79597958795AC01411580E197
:100C70005807A8F0E889F989108260E874E88EE1E5
:100C800090E0A70196010E940608BA01A90141500F
:100C90005109610971097695679557954795EC85D6
:100CA000FD855083EE85FF854083188EEC89FD8994
:100CB0001083EA89FB89808180618083EA89FB89CE
:100CC000808188608083EA89FB8980818068808355
:100CD000EA89FB8980818F7D8083DF91CF911F918D
:100CE000FF90EF90DF90CF9008951F920F920FB674
:100CF0000F9211242F938F939F93EF93FF93E09183
:100D00002402F09125028081E0912A02F0912B02C9
:100D100082FD12C0908180912D028F5F8F73209190
:100D20002E02821751F0E0912D02F0E0EC5EFD4FB3
:100D3000958F80932D0201C08081FF91EF919F914B
:100D40008F912F910F900FBE0F901F9018951F92AB
:100D50000F920FB60F9211242F933F934F935F93EF
:100D60006F937F938F939F93AF93BF93EF93FF9373
:100D700084E192E00E948605FF91EF91BF91AF91CF
:100D80009F918F917F916F915F914F913F912F91A3
:100D90000F900FBE0F901F90189584E192E00E9473
:100DA0004A0521E0892B09F420E0822F0895E4E12F
:100DB000F2E01382128288EE93E0A0E0B0E0848338
:100DC0009583A683B78383E491E09183808385EC48
:100DD00090E09587848784EC90E09787868780EC05
:100DE00090E0918B808B81EC90E0938B828B82ECF6
:100DF00090E0958B848B86EC90E0978B868B118EA0
:100E0000128E138E148E0895CF92DF92EF92FF927E
:100E10000F931F93CF93DF936C017A018B01C0E096
:100E2000D0E0CE15DF0589F0D8016D918D01D60196
:100E3000ED91FC910190F081E02DC6010995892B7F
:100E400011F47E0102C02196ECCFC701DF91CF9152
:100E50001F910F91FF90EF90DF90CF900895611553
:100E6000710579F0FB0101900020E9F73197AF019E
:100E7000461B570BDC01ED91FC910280F381E02DC4
:100E8000099480E090E00895EF92FF920F931F93F2
:100E9000CF93DF938C017B01C0E0D0E0F701EC0F32
:100EA000FD1F6491662361F0D801ED91FC910190E2
:100EB000F081E02DC8010995892B11F02196EECF24
:100EC000CE01DF91CF911F910F91FF90EF90089588
:100ED0000C942F07DC01ED91FC910190F081E02D45
:100EE00009946FE471E00C942F070F931F93CF9335
:100EF000DF93EC010E9444078C01CE010E94710730
:100F0000800F911FDF91CF911F910F9108950F9343
:100F10001F93CF93DF93EC010E942F078C01CE012A
:100F20000E947107800F911FDF91CF911F910F9148
:100F300008954F925F926F927F92EF92FF920F937C
:100F40001F93CF93DF93CDB7DEB7A1970FB6F89479
:100F5000DEBF0FBECDBF7C01FA01CB0119A222304A
:100F600008F42AE08E010F5D1F4F422E512C612C98
:100F7000712CBF01A30192010E940608F901CA0168
:100F8000015011096A3014F4605D01C0695CD80138
:100F90006C93232B242B252B61F7B801C7010E94EA
:100FA0002F07A1960FB6F894DEBF0FBECDBFDF911D
:100FB000CF911F910F91FF90EF907F906F905F9076
:100FC0004F9008952115310541F4DC01ED91FC911C
:100FD0000190F081E02D642F09940C9499079A01F7
:100FE000462F50E060E070E00C94E20708950E9404
:100FF0000F050E94F6070E94D400C8E7D5E00E94C2
:1010000060012097E1F30E947805F9CFA1E21A2E42
:10101000AA1BBB1BFD010DC0AA1FBB1FEE1FFF1F9C
:10102000A217B307E407F50720F0A21BB30BE40BEC
:10103000F50B661F771F881F991F1A9469F7609533
:101040007095809590959B01AC01BD01CF010895ED
:10105000EE0FFF1F0590F491E02D09949111089572
:1010600081568A5108F4805285580895F894FFCF2C
:10107000D20400AABBCCDE01526563696576656463
:101080003A200000000000650208035C027B029821
:1010900002BE029D026302C8026402B102C6035E80
:1010A000034102480258029B020000000062040053
:1010B000000000C90504074A0564055605A7050D8B
:1010C0000A006E616E00696E66006F7666002E0023
:00000001FF
