:100000000C94DA000C9402010C9402010C9402018D
:100010000C9402010C9402010C9402010C94020154
:100020000C9402010C9402010C9402010C94020144
:100030000C9402010C9402010C9402010C94020134
:100040000C94C0070C9402010C94050A0C94370A16
:100050000C9402010C9402010C9402010C94020114
:100060000C9402010C9402014F74686572206E6F4B
:10007000646520616464726573733A200054686932
:1000800073206E6F646520616464726573733A20D7
:10009000005D002C20002C20004F62697252463215
:1000A000344E6574776F726B206E616E6F52504381
:1000B0002073657276657220696E69742E2E2E200B
:1000C0005B0029006E616E6F5270635365745469F2
:1000D0006D6553727628006E616E6F52706347656E
:1000E00074436F756E7465725372762829006E6161
:1000F0006E6F52706347657454696D6553727628EC
:1001000029006661696C65642E00002C200030783F
:1001100000506F55415254207061796C6F61643AA0
:100120002000506F55415254206C656E3A200050AB
:100130006F55415254206368616E6E656C3A2000C1
:100140004D657373616765206C656E3A200045727A
:10015000726F723A00000000080002010000030400
:100160000700000000000000000102040810204009
:100170008001020408102001020408102004040475
:100180000404040404020202020202030303030340
:100190000300000000250028002B000000000024C0
:1001A0000027002A000076051D07280733074107AE
:1001B000B507670A11241FBECFEFD8E0DEBFCDBF61
:1001C00011E0A0E0B1E0E8ECF7E102C005900D928B
:1001D000AC3DB107D9F723E0ACEDB1E001C01D9211
:1001E000A834B207E1F710E0CAEDD0E004C02197CF
:1001F000FE010E94D30BC33DD107C9F70E94A20B99
:100200000C94E20B0C940000CF93C82F6EE471E0C5
:100210008BEA92E00E94D40A40E150E06C2F8BEA16
:1002200092E0CF910C94740BDF92EF92FF920F93B8
:100230001F93CF93DF93EC01162F60E471E08BEAFC
:1002400092E00E94D40A40E150E0612F8BEA92E0F4
:100250000E94740B6FE271E08BEA92E00E94D40A74
:1002600040E150E068818BEA92E00E94740B62E208
:1002700071E08BEA92E00E94D40A40E150E069818B
:100280008BEA92E00E94740B61E171E08BEA92E0EC
:100290000E94D40A7E0182E0E80EF11C00E010E02A
:1002A000898190E008171907CCF4F701D1907F01FC
:1002B0006EE071E08BEA92E00E94D40A40E150E0E7
:1002C0006D2D8BEA92E00E946D0B6BE071E08BEA82
:1002D00092E00E94D40A0F5F1F4FE2CF6AE071E004
:1002E0008BEA92E0DF91CF911F910F91FF90EF90F9
:1002F000DF900C94050BCF92DF92EF92FF920F9359
:100300001F93CF93DF9300D000D000D0CDB7DEB7DE
:10031000962FBA01CDB6DEB6092F10E098012E5FF8
:100320003F4F4DB75EB7421B530B0FB6F8945EBFFD
:100330000FBE4DBFEDB7FEB731967F011C821B8209
:10034000EDB7FEB78183F70191838DB79EB7039612
:10035000A8010E94D90B98012E5F3F4FA701BE0153
:100360006F5F7F4F86E792E00E948306811106C08F
:1003700062E071E08BEA92E00E94050B0FB6F89400
:10038000DEBE0FBECDBE26960FB6F894DEBF0FBE02
:10039000CDBFDF91CF911F910F91FF90EF90DF9034
:1003A000CF900895EF92FF921F93CF93DF93CDB735
:1003B000DEB765970FB6F894DEBF0FBECDBF142F22
:1003C000CE0101967C0185E1F70111928A95E9F74A
:1003D0008BEF898340916A0250916B0260916C02AD
:1003E00070916D028091720290917302A0917402DB
:1003F000B0917502840F951FA61FB71F8A839B8338
:10040000AC83BD831E83412F50E0B901CE01079616
:100410000E94D90B66E0610FA70181E40E947B0175
:1004200065960FB6F894DEBF0FBECDBFDF91CF91BA
:100430001F91FF90EF9008958F929F92AF92BF927D
:10044000CF92DF92EF92FF920F931F9340916A0237
:1004500050916B0260916C0270916D028A019B0158
:10046000080F111D211D311DD901C80100936A0219
:1004700010936B0220936C0230936D02C0906E0259
:10048000D0906F02E0907002F09071020C151D0583
:100490002E053F05D8F5B8016A5F7F4F00917202C3
:1004A0001091730220917402309175024601570138
:1004B000881A990AAA0ABB0A4FE084169104A1047B
:1004C000B10468F4FB01EC51FE4F4C2D481BBC01FC
:1004D000CD01600F711F821F931F9F010BC0AB01E5
:1004E0004C515E4FBC01CD01600F711F821F931FE5
:1004F0009A014FE01F910F91FF90EF90DF90CF9006
:10050000BF90AF909F908F900C94D2011F910F914C
:10051000FF90EF90DF90CF90BF90AF909F908F9023
:1005200008950F931F93CF93DF9300D000D000D096
:10053000CDB7DEB7AE014F5F5F4F86E0FA01119293
:100540008A95E9F78EEF898300916A0210916B0218
:1005500020916C0230916D02809172029091730231
:10056000A0917402B0917502800F911FA21FB31F5A
:100570008A839B83AC83BD836E8366E081E40E94A3
:100580007B0126960FB6F894DEBF0FBECDBFDF917C
:10059000CF911F910F910895CF93DF9300D000D09A
:1005A0001F92CDB7DEB7AE014F5F5F4F25E0FA0176
:1005B00011922A95E9F724E029836A837B838C834F
:1005C0009D8365E081E40E947B010F900F900F9066
:1005D0000F900F90DF91CF910895CF93DF9300D0CC
:1005E00000D01F92CDB7DEB725E0AE014F5F5F4F61
:1005F000FA01322F11923A95E9F729836A837B83B6
:100600008C839D8365E081E40E947B010F900F90B5
:100610000F900F900F90DF91CF910895CF93DF93BC
:1006200000D000D01F92CDB7DEB7AE014F5F5F4F55
:1006300025E0FA0111922A95E9F726E029836A83D9
:100640007B838C839D8365E081E40E947B010F9016
:100650000F900F900F900F90DF91CF91089510920F
:10066000E0011092E1011092E2011092E301109278
:10067000DC011092DD011092DE011092DF0108957D
:100680000F931F936EEE70E08BEA92E00E94050BD1
:100690000E944C070091DC011091DD012091DE01E8
:1006A0003091DF01600F711F821F931F1F910F9107
:1006B0000C94CC020F931F9367ED70E08BEA92E0ED
:1006C0000E94050B6091E0017091E1018091E201CF
:1006D0009091E3018B019C010F5F1F4F2F4F3F4F04
:1006E0000093E0011093E1012093E2013093E301D4
:1006F0001F910F910C94ED02CF92DF92EF92FF9237
:100700006B017C0164EC70E08BEA92E00E94D40AF9
:100710002AE030E0B701A6018BEA92E00E94600B6C
:1007200062EC70E08BEA92E00E94050BC092DC0163
:10073000D092DD01E092DE01F092DF010E944C07D1
:10074000C090DC01D090DD01E090DE01F090DF018F
:100750006C0D7D1D8E1D9F1DFF90EF90DF90CF9043
:100760000C940E038091E8019091E901823091058B
:1007700039F08330910531F0019771F40C94400306
:100780000C945A036091E4017091E5018091E601B7
:100790009091E7010C947C0308958F929F92AF9201
:1007A000BF92CF92DF92EF92FF920F931F93482F49
:1007B00000916A0210916B0220916C0230916D02DF
:1007C000C82ED12CE12CF12C46015701800E911E30
:1007D000A21EB31EC801069651E885169104A10415
:1007E000B104A8F040E850E0401B510B8C519E4FE3
:1007F0000E94D90B80E890E0A0E0B0E080936A020C
:1008000090936B02A0936C02B0936D0243C050E0D2
:100810008C519E4F0E94D90B80916A0290916B027D
:10082000A0916C02B0916D0297018601080F191F0B
:100830002A1F3B1F00936A0210936B0220936C02E5
:1008400030936D0280916E0290916F02A0917002C0
:10085000B0917102081719072A073B07D8F4BC01A9
:10086000CD01601B710B820B930B6031710581050B
:10087000910520F06FE070E080E090E01F910F9113
:10088000FF90EF90DF90CF90BF90AF909F908F90B0
:100890000C9491021F910F91FF90EF90DF90CF90F9
:1008A000BF90AF909F908F900C94B20381E090E046
:1008B0009093E9018093E8010C94B20382E090E008
:1008C0009093E9018093E8010C94B203E4EEF1E027
:1008D000608371838283938383E090E09583848334
:1008E0000C94B2031F93CF93DF93813409F050C06F
:1008F000EA0188818330F9F028F4813041F08230B8
:1009000081F046C08A3F29F18F3F71F141C06130CB
:1009100019F081E00E940401DF91CF911F910C94A6
:100920005604613019F082E00E940401DF91CF91FA
:100930001F910C945E04653019F083E00E9404015D
:1009400069817A818B819C81DF91CF911F910C9479
:100950006604623019F08AEF0E9404018981DF91F8
:10096000CF911F910C941C02633018F48FEF0E94FA
:1009700004011981103118F08FEF0E940401BE01AB
:100980006E5F7F4F812FDF91CF911F910C94CD032C
:10099000DF91CF911F91089526E040E052EC61E095
:1009A00070E08BEA92E00E94A00969E970E08BEAAE
:1009B00092E00E94D40A60E071E08BEA92E00E942B
:1009C000F80A66E970E08BEA92E00E94D40A6EE8C9
:1009D00071E08BEA92E00E94F80A63E970E08BEA2A
:1009E00092E00E94D40A6AE971E08BEA92E00E94E8
:1009F000F80A61E970E08BEA92E00E94050B6DE76E
:100A000070E08BEA92E00E94D40A40E150E061E09D
:100A100070E08BEA92E00E948B0B68E670E08BEA54
:100A200092E00E94D40A40E150E060E070E08BEA7E
:100A300092E00E948B0B0E94E70687E792E00E94FB
:100A4000850541E050E06AE586E792E00E94910565
:100A50000C942F03CF93DF93CDB7DEB7CE57D109D8
:100A60000FB6F894DEBF0FBECDBF86E792E00E94BE
:100A7000A20586E792E00E94E005882369F128E755
:100A800030E0AE014F5F5F4FBE0167587F4F86E792
:100A900092E00E94F805882369F0682FCE01019644
:100AA0000E941401AE014D5F5F4F6A8189810E94EF
:100AB0007204DFCF63EA71E08BEA92E00E94F80AE9
:100AC00086E792E00E94F50540E150E0682F8BEA4E
:100AD00092E00E94740BCDCFC258DF4F0FB6F8944E
:100AE000DEBF0FBECDBFDF91CF91089548E050E04B
:100AF00067E070E087E792E00E94840567E772E0B4
:100B000086E792E00C948E050895089595BF84BF02
:100B100063BF089595BF84BF83B7089510927A028A
:100B2000089515BE81E084BF63BF15BE82E084BF17
:100B300053BF15BE83E084BF43BF409378025093F8
:100B40007902089580E0089515BE85E884BF83B7D3
:100B50000895DF92EF92FF920F931F93CF93DF934D
:100B600000D000D000D0CDB7DEB70E94A4058730FA
:100B7000B8F08E010F5F1F4F86E8E82EF12C96E04B
:100B8000D92ED00EC7010E948A05F80181938F01EA
:100B9000FFEFEF1AFF0AD012F5CF8B819C8102C0C4
:100BA0008FEF9FEF26960FB6F894DEBF0FBECDBF36
:100BB000DF91CF911F910F91FF90EF90DF900895FB
:100BC0000E94A9059C012F3F8FEF380721F481E097
:100BD00080937A0208C081E04091780250917902B6
:100BE0002417350709F080E0089580917A0208956E
:100BF0004F925F926F927F928F929F92AF92BF922D
:100C0000CF92DF92EF92FF920F931F93CF93DF93D8
:100C100000D000D000D0CDB7DEB77C013B01042F5F
:100C2000552E49010E94A405182F873010F482E048
:100C30000FC0C7010E94A905209178023091790266
:100C40008217930751F015BE85E884BF13BE84E078
:100C500080937A0280E090E03FC0CE0101967C0153
:100C60006C0196E8A92EB12C26E0422E4E0CC5014F
:100C70000E948A05F60181936F01FFEFAF1ABF0A48
:100C80004C10F5CF86E0F701D30101900D928A95C3
:100C9000E1F71650812F90E08815990508F0182D7E
:100CA000B02EE02EF52C8CE8C82ED12C8E2D8B1971
:100CB000811750F4C6010E948A05F70181937F01D4
:100CC000FFEFCF1ADF0AF2CF15BE85E884BF13BE4F
:100CD00010927A02812F90E026960FB6F894DEBF2C
:100CE0000FBECDBFDF91CF911F910F91FF90EF907D
:100CF000DF90CF90BF90AF909F908F907F906F903C
:100D00005F904F900895AF92BF92CF92DF92EF9293
:100D1000FF920F931F93CF93DF93CDB7DEB7289742
:100D20000FB6F894DEBF0FBECDBF6B0159018091A5
:100D3000780290917902FB0191838083C901069624
:100D40009583848386E0DE01119601900D928A9549
:100D5000E1F7CE0101967C0105E010E0F701619119
:100D60007F01C8014F8358870E9486050F5F1F4F80
:100D70004F8158850B30110589F77A01AE0CBF1CE5
:100D8000EA14FB0449F0F70161917F01C8010E9458
:100D900086050F5F1F4FF4CFF601848115BE94E0E6
:100DA00094BF83BF15BE14BE81E083BF28960FB6E3
:100DB000F894DEBF0FBECDBFDF91CF911F910F9191
:100DC000FF90EF90DF90CF90BF90AF900895CF93BA
:100DD000CFB7F89480917B02811127C0E7E8F1E05A
:100DE0008491E3E7F1E09491E82FF0E0EE0FFF1F2C
:100DF000E556FE4FA591B491EC91E92321F461E011
:100E00008AE00E94AA0861E08AE00E946E088CB520
:100E100080618CBD8CB580648CBD61E08DE00E94EA
:100E20006E0861E08BE00E946E0880917B028F5F0C
:100E300080937B02CFBFCF9108950F9300E020E015
:100E400040E060E08CE792E00E94A9070F910895CE
:100E50000F9300E020E040E060E082E892E00E9432
:100E6000A9070F9108950F9300E020E040E060E0B3
:100E700080E992E00E94A90788E892E00F910C9423
:100E80009F070F9300E020E040E060E086E992E0F9
:100E90000E94A9070F91089546B767B728B739B7D9
:100EA000862F90E0A0E0B0E0DC0199278827B42BE2
:100EB000832BBC01CD01722B08958F929F92AF922C
:100EC000BF92CF92DF92EF92FF920F931F93CF9337
:100ED000DF937C018B016C0182E0C80ED11C4701BD
:100EE000E5E08E0E911CC0E0D0E0F60161916F014B
:100EF0004AE050E0C8010E946D0B5C016EE2C8013F
:100F00000E94FA0A8A0D9B1DC80FD91FC814D90464
:100F100061F74AE050E0F7016581C8010E946D0B5E
:100F20008C0F9D1FDF91CF911F910F91FF90EF903C
:100F3000DF90CF90BF90AF909F908F90089529EB56
:100F400031E0FC01318320831282138214821582E6
:100F500008950F93FC0189EB91E091838083628374
:100F60004383248305830F910895ECE9F2E089EB34
:100F700091E09183808312821382148215820895F6
:100F80001F920F920FB60F9211242F933F938F93BE
:100F90009F93AF93BF938091A3029091A402A091DD
:100FA000A502B091A6023091A20223E0230F2D37B3
:100FB00020F40196A11DB11D05C026E8230F02965D
:100FC000A11DB11D2093A2028093A3029093A402BD
:100FD000A093A502B093A6028091A7029091A802C7
:100FE000A091A902B091AA020196A11DB11D809302
:100FF000A7029093A802A093A902B093AA02BF915E
:10100000AF919F918F913F912F910F900FBE0F90B5
:101010001F901895789484B5826084BD84B58160F2
:1010200084BD85B5826085BD85B5816085BDEEE6F0
:10103000F0E0808181608083E1E8F0E010828081CF
:1010400082608083808181608083E0E8F0E080813D
:1010500081608083E1EBF0E0808184608083E0EB5D
:10106000F0E0808181608083EAE7F0E08081846045
:1010700080838081826080838081816080838081A1
:10108000806880831092C1000895833081F028F435
:10109000813099F08230A1F008958730A9F088302E
:1010A000B9F08430D1F4809180008F7D03C08091AD
:1010B00080008F7780938000089584B58F7702C079
:1010C00084B58F7D84BD08958091B0008F7703C073
:1010D0008091B0008F7D8093B0000895CF93DF930F
:1010E00090E0FC01E759FE4F2491FC01E358FE4FCC
:1010F0008491882361F190E0880F991FFC01E556E7
:10110000FE4FC591D491FC01EF56FE4FA591B491CD
:10111000611109C09FB7F894888120958223888344
:10112000EC912E230BC0623061F49FB7F8943881A4
:10113000822F809583238883EC912E2B2C939FBF45
:1011400006C08FB7F894E8812E2B28838FBFDF91DC
:10115000CF9108951F93CF93DF93282F30E0F901AB
:10116000EB5AFE4F8491F901E759FE4FD491F901F2
:10117000E358FE4FC491CC23C9F0162F81110E9471
:101180004508EC2FF0E0EE0FFF1FEF56FE4FA59144
:10119000B4918FB7F894111105C09C91ED2FE09593
:1011A000E92302C0EC91ED2BEC938FBFDF91CF913F
:1011B0001F910895FC01918D228D892F90E0805C14
:1011C0009F4F821B91098F7399270895FC01918D80
:1011D000828D981731F0828DE80FF11D858D90E09A
:1011E00008958FEF9FEF0895FC01918D828D9817E0
:1011F00061F0828DDF01A80FB11D5D968C91928DFB
:101200009F5F9F73928F90E008958FEF9FEF0895F7
:101210008DE59AE0892B49F080E090E0892B29F058
:101220000E945D0A81110C9400000895FC01848DD8
:10123000DF01A80FB11DA35ABF4F2C91848D90E000
:1012400001968F739927848FA689B7892C93A089DB
:10125000B1898C9180648C93938D848D981306C092
:101260000288F389E02D80818F7D80830895CF935C
:10127000DF93EC01888D8823C9F0EA89FB8980819E
:1012800085FD05C0A889B9898C9186FD0FC00FB670
:1012900007FCF5CF808185FFF2CFA889B9898C91B1
:1012A00085FFEDCFCE010E941609E7CFDF91CF91E8
:1012B0000895EF92FF920F931F93CF93DF93EC016A
:1012C00081E0888F9B8D8C8D981305C0E889F98902
:1012D000808185FD24C0F62E0B8D10E00F5F1F4F1F
:1012E0000F731127E02E8C8DE8120CC00FB607FC8F
:1012F000FACFE889F989808185FFF5CFCE010E9478
:101300001609F1CF8B8DFE01E80FF11DE35AFF4F57
:10131000F0820B8FEA89FB898081806207C0EE89A9
:10132000FF896083E889F98980818064808381E016
:1013300090E0DF91CF911F910F91FF90EF90089572
:10134000CF92DF92EF92FF921F93CF93DF93EC0146
:101350006A017B01122FE889F98982E080834115B7
:10136000514E61057105B1F060E079E08DE390E0E8
:10137000A70196010E94B10BDA01C9010197A109E9
:10138000B109B695A79597958795AC01411580E170
:101390005807A8F0E889F989108260E874E88EE1BE
:1013A00090E0A70196010E94B10BBA01A90141503A
:1013B0005109610971097695679557954795EC85AF
:1013C000FD855083EE85FF854083188EEC89FD896D
:1013D0001083EA89FB89808180618083EA89FB89A7
:1013E000808188608083EA89FB898081806880832E
:1013F000EA89FB8980818F7D8083DF91CF911F9166
:10140000FF90EF90DF90CF9008951F920F920FB64C
:101410000F9211242F938F939F93EF93FF93E0915B
:10142000BB02F091BC028081E091C102F091C20246
:1014300082FD12C090818091C4028F5F8F732091D2
:10144000C502821751F0E091C402F0E0E555FD4F6E
:10145000958F8093C40201C08081FF91EF919F918D
:101460008F912F910F900FBE0F901F9018951F9284
:101470000F920FB60F9211242F933F934F935F93C8
:101480006F937F938F939F93AF93BF93EF93FF934C
:101490008BEA92E00E941609FF91EF91BF91AF9104
:1014A0009F918F917F916F915F914F913F912F917C
:1014B0000F900FBE0F901F9018958BEA92E00E943C
:1014C000DA0821E0892B09F420E0822F0895EBEA65
:1014D000F2E01382128288EE93E0A0E0B0E0848311
:1014E0009583A683B7838FEB91E09183808385EC0E
:1014F00090E09587848784EC90E09787868780ECDE
:1015000090E0918B808B81EC90E0938B828B82ECCE
:1015100090E0958B848B86EC90E0978B868B118E78
:10152000128E138E148E0895CF92DF92EF92FF9257
:101530000F931F93CF93DF936C017A018B01C0E06F
:10154000D0E0CE15DF0589F0D8016D918D01D6016F
:10155000ED91FC910190F081E02DC6010995892B58
:1015600011F47E0102C02196ECCFC701DF91CF912B
:101570001F910F91FF90EF90DF90CF90089561152C
:10158000710579F0FB0101900020E9F73197AF0177
:10159000461B570BDC01ED91FC910280F381E02D9D
:1015A000099480E090E00895EF92FF920F931F93CB
:1015B000CF93DF938C017B01C0E0D0E0F701EC0F0B
:1015C000FD1F6491662361F0D801ED91FC910190BB
:1015D000F081E02DC8010995892B11F02196EECFFD
:1015E000CE01DF91CF911F910F91FF90EF90089561
:1015F0000C94BF0ADC01ED91FC910190F081E02D8B
:1016000009946BEC71E00C94BF0A0F931F93CF9376
:10161000DF93EC010E94D40A8C01CE010E94010BE1
:10162000800F911FDF91CF911F910F9108954F92DD
:101630005F926F927F92EF92FF920F931F93CF93DF
:10164000DF93CDB7DEB7A1970FB6F894DEBF0FBE1C
:10165000CDBF7C01FA01CB0119A2223008F42AE0A7
:101660008E010F5D1F4F422E512C612C712CBF013A
:10167000A30192010E94B10BF901CA0101501109A5
:101680006A3014F4605D01C0695CD8016C93232B4F
:10169000242B252B61F7B801C7010E94BF0AA19630
:1016A0000FB6F894DEBF0FBECDBFDF91CF911F9173
:1016B0000F91FF90EF907F906F905F904F90089503
:1016C0002115310541F4DC01ED91FC910190F0818F
:1016D000E02D642F09940C94170B9A01462F50E0CB
:1016E00060E070E00C94600B0F931F93CF93DF9337
:1016F000EC019A01462F50E060E070E00E94600B20
:101700008C01CE010E94010B800F911FDF91CF91C0
:101710001F910F9108950F931F93CF93DF93EC01C7
:101720009A01AB0160E070E00E94600B8C01CE0179
:101730000E94010B800F911FDF91CF911F910F919C
:10174000089508950E940A080E94A10B0E94CC04EB
:10175000C8E0D9E00E942A052097E1F30E94080919
:10176000F9CFA1E21A2EAA1BBB1BFD010DC0AA1FB7
:10177000BB1FEE1FFF1FA217B307E407F50720F0FA
:10178000A21BB30BE40BF50B661F771F881F991F75
:101790001A9469F760957095809590959B01AC01BE
:1017A000BD01CF010895EE0FFF1F0590F491E02DCC
:1017B0000994FB01DC0102C001900D9241505040A0
:0817C000D8F70895F894FFCF5B
:1017C800433A5C446F63756D656E747320616E6433
:1017D8002053657474696E67735C61707275737A8F
:1017E8006B6F5C4D6F6A6520646F6B756D656E74A9
:1017F800795C41726475696E6F5C4F6269725246BA
:1018080032344E6574776F726B5F6E616E6F5250D3
:10181800435F7365727665725F32303230303531CE
:10182800315C4F626972524632344E6574776F721A
:101838006B5F6E616E6F5250435F7365727665724F
:101848005F32303230303531312E696E6F004D6184
:101858007920313220323032300030393A34393A56
:10186800323200526563696576696E672065727207
:101878006F723A2000000000005D07000000005968
:1018880009940ADA08F408E60837090D0A006E61B7
:0C1898006E00696E66006F7666002E0020
:00000001FF
