:100000000C94BB000C94E3000C94E3000C94E3000C
:100010000C94E3000C94E3000C94E3000C94E300D4
:100020000C94E3000C94E3000C94E3000C94E300C4
:100030000C94E3000C94E3000C94E3000C94E300B4
:100040000C946A060C94E3000C94AF080C94E1083D
:100050000C94E3000C94E3000C94E3000C94E30094
:100060000C94E3000C94E3004F74686572206E6F8B
:10007000646520616464726573733A200054686932
:1000800073206E6F646520616464726573733A20D7
:10009000005D002C20002C20004F62697252463215
:1000A000344E6574776F726B206E616E6F52504381
:1000B00020636C69656E7420696E69742E2E2E2023
:1000C0005B00556E6B6E6F776E2073746174653A6A
:1000D000200073657454696D655372765265742897
:1000E000293D00676574436F756E7465725372764F
:1000F00052657428293D0067657454696D655372B3
:100100007652657428293D006661696C65642E002D
:100110004572726F723A0000000008000201000090
:1001200003040700000000000000000102040810A2
:10013000204080010204081020010204081020045D
:10014000040404040404040202020202020303037E
:1001500003030300000000250028002B000000001E
:1001600000240027002A00002004C705D205DD0571
:10017000EB055F06110911241FBECFEFD8E0DEBFEB
:10018000CDBF11E0A0E0B1E0E2EEF5E102C00590E4
:100190000D92AC3DB107D9F722E0ACEDB1E001C062
:1001A0001D92A63BB207E1F710E0CBEBD0E004C014
:1001B0002197FE010E94E00AC43BD107C9F70E94C3
:1001C000AF0A0C94EF0A0C940000CF93C82F60E1A3
:1001D00071E089E192E00E947E0940E150E06C2FDD
:1001E00089E192E0CF910C946F0ACF92DF92EF9267
:1001F000FF920F931F93CF93DF9300D000D000D0D6
:10020000CDB7DEB7962FBA01CDB6DEB6092F10E016
:1002100098012E5F3F4F4DB75EB7421B530B0FB691
:10022000F8945EBF0FBE4DBFEDB7FEB731967F01AC
:1002300021E030E03C832B83EDB7FEB78183F701EB
:1002400091838DB79EB70396A8010E94E60A980194
:100250002E5F3F4FA701BE016F5F7F4F84EE91E09D
:100260000E942D05811106C068E071E089E192E0ED
:100270000E94AF090FB6F894DEBE0FBECDBE269623
:100280000FB6F894DEBF0FBECDBFDF91CF911F91A7
:100290000F91FF90EF90DF90CF900895CF93DF9371
:1002A0001F92CDB7DEB781E08983AE014F5F5F4F0C
:1002B00061E081E40E94F5000F90DF91CF910895F5
:1002C000CF93DF931F92CDB7DEB782E08983AE0173
:1002D0004F5F5F4F61E081E40E94F5000F90DF9176
:1002E000CF910895CF93DF9300D000D01F92CDB768
:1002F000DEB7AE014F5F5F4F25E0FA0111922A95FC
:10030000E9F723E029836A837B838C839D8365E0FF
:1003100081E40E94F5000F900F900F900F900F90C6
:10032000DF91CF910895EF92FF921F93CF93DF93C8
:10033000CDB7DEB764970FB6F894DEBF0FBECDBF62
:10034000142F9E012F5F3F4F790124E1F701119295
:100350002A95E9F72FEF29834A8350E0CE010396CF
:100360000E94E60A62E0610FA70181E40E94F500A5
:1003700064960FB6F894DEBF0FBECDBFDF91CF916C
:100380001F91FF90EF9008951F93CF93DF9300D0BC
:10039000CDB7DEB7DC01CB01142F1A8219824AEFE8
:1003A0004983412F50E0B9010E94E60A1A83AE0149
:1003B0004F5F5F4F62E081E40E94F5000F900F9065
:1003C000DF91CF911F910895CF92DF92EF92FF922C
:1003D0006B017C0167EF70E089E192E00E947E0989
:1003E0002AE030E0B701A60189E192E00E949C0A70
:1003F00082E090E09093E3018093E201FF90EF9020
:10040000DF90CF900895CF92DF92EF92FF926B0131
:100410007C0163EE70E089E192E00E947E092AE0AF
:1004200030E0B701A60189E192E00E949C0A84E0D5
:1004300090E09093E3018093E201FF90EF90DF90D2
:10044000CF900895CF92DF92EF92FF926B017C01E3
:1004500062ED70E089E192E00E947E092AE030E0DE
:10046000B701A60189E192E00E949C0A1092E30183
:100470001092E20181E090E09093E1018093E0012D
:10048000FF90EF90DF90CF900895CF92DF92EF92A0
:10049000FF92CF93DF93813409F070C0EA01988115
:1004A000963091F128F4943049F09530D1F066C03F
:1004B0009B3FE9F19E3F09F44FC060C0C980DA80DC
:1004C000EB80FC80653019F084E00E94E500C701F4
:1004D000B601DF91CF91FF90EF90DF90CF900C9419
:1004E000E401C980DA80EB80FC80653019F085E09A
:1004F0000E94E500C701B601DF91CF91FF90EF9018
:10050000DF90CF900C940302C980DA80EB80FC80EE
:10051000653019F086E00E94E500C701B601DF9161
:10052000CF91FF90EF90DF90CF900C942202663035
:1005300018F48BEF0E94E5009E012A5F3F4F69810E
:100540007A818B819C814D81DF91CF91FF90EF90DB
:10055000DF90CF900C94C401663019F08EEF0E94AA
:10056000E50069817A818B819C814D81DF91CF91FA
:10057000FF90EF90DF90CF900C949301DF91CF919B
:10058000FF90EF90DF90CF9008958091E2019091DD
:10059000E3018230910591F02CF4009751F001971E
:1005A00051F508958430910571F0CCF1059719F556
:1005B00008950E944E0181E090E013C00E94600106
:1005C00083E090E00EC08091E0019091E101892BE1
:1005D00069F460E27CE180E090E00E94720185E0D5
:1005E00090E09093E3018093E20108951092E3017B
:1005F0001092E20108951092E3011092E20162EC80
:1006000070E089E192E00E947E096091E2017091C0
:10061000E30140E150E089E192E00C94540A08952E
:1006200084E090E09093E3018093E2011092E10175
:100630001092E001089526E040E052EC61E070E0A5
:1006400089E192E00E944A0869E970E089E192E05C
:100650000E947E0960E071E089E192E00E94A209B7
:1006600066E970E089E192E00E947E096EE871E03F
:1006700089E192E00E94A20963E970E089E192E0D9
:100680000E947E096AE971E089E192E00E94A20974
:1006900061E970E089E192E00E94AF096DE770E0E6
:1006A00089E192E00E947E0940E150E060E070E064
:1006B00089E192E00E94860A68E670E089E192E0B2
:1006C0000E947E0940E150E061E070E089E192E043
:1006D0000E94860A0E94910585EE91E00E942F04F7
:1006E00040E050E06AE584EE91E00E943B040E9405
:1006F00010031092DC011092DD011092DE011092C5
:10070000DF010895CF92DF92EF92FF920F931F9334
:10071000CF93DF93CDB7DEB7C258D1090FB6F894A7
:10072000DEBF0FBECDBF84EE91E00E944C040E945C
:10073000F6050091DC011091DD012091DE01309180
:10074000DF016B017C01C01AD10AE20AF30A40ED15
:10075000C41647E0D406E104F10408F448C0C158C7
:10076000DF4F6883CF57D040C058DF4F7883C058E1
:10077000D040CF57DF4F8883C158D040CE57DF4F8E
:100780009883C258D0400E94C502C158DF4F68818B
:10079000CF57D040C058DF4F7881C058D040CF5796
:1007A000DF4F8881C158D040CE57DF4F9881C25863
:1007B000D0406093DC017093DD018093DE01909363
:1007C000DF0115C028E730E0AE014F5F5F4FBE018B
:1007D00067587F4F84EE91E00E94A204882371F055
:1007E000AE014D5F5F4F6A8189810E94450284EEB0
:1007F00091E00E948A048111E5CF12C063EA71E0A2
:1008000089E192E00E94A20984EE91E00E949F0497
:1008100040E150E0682F89E192E00E946F0AFFCF2B
:10082000CE57DF4F0FB6F894DEBF0FBECDBFDF91BE
:10083000CF911F910F91FF90EF90DF90CF9008958F
:1008400048E050E067E070E085EE91E00E942E0401
:1008500065EE71E084EE91E00C94380408950895FB
:1008600095BF84BF63BF089595BF84BF83B70895C4
:100870001092E801089515BE81E084BF63BF15BEE4
:1008800082E084BF53BF15BE83E084BF43BF409363
:10089000E6015093E701089580E0089515BE85E8CC
:1008A00084BF83B70895DF92EF92FF920F931F9357
:1008B000CF93DF9300D000D000D0CDB7DEB70E9439
:1008C0004E048730B8F08E010F5F1F4F86E8E82E88
:1008D000F12C96E0D92ED00EC7010E943404F80105
:1008E00081938F01FFEFEF1AFF0AD012F5CF8B81B2
:1008F0009C8102C08FEF9FEF26960FB6F894DEBF63
:100900000FBECDBFDF91CF911F910F91FF90EF9060
:10091000DF9008950E9453049C012F3F8FEF38070A
:1009200021F481E08093E80108C081E04091E60174
:100930005091E7012417350709F080E00895809170
:10094000E80108954F925F926F927F928F929F92EB
:10095000AF92BF92CF92DF92EF92FF920F931F93CD
:10096000CF93DF9300D000D000D0CDB7DEB77C01AD
:100970003B01042F552E49010E944E04182F873049
:1009800010F482E00FC0C7010E9453042091E601D9
:100990003091E7018217930751F015BE85E884BFB7
:1009A00013BE84E08093E80180E090E03FC0CE0178
:1009B00001967C016C0196E8A92EB12C26E0422E0E
:1009C0004E0CC5010E943404F60181936F01FFEFC4
:1009D000AF1ABF0A4C10F5CF86E0F701D3010190A2
:1009E0000D928A95E1F71650812F90E088159905B0
:1009F00008F0182DB02EE02EF52C8CE8C82ED12C46
:100A00008E2D8B19811750F4C6010E943404F70112
:100A100081937F01FFEFCF1ADF0AF2CF15BE85E881
:100A200084BF13BE1092E801812F90E026960FB686
:100A3000F894DEBF0FBECDBFDF91CF911F910F9114
:100A4000FF90EF90DF90CF90BF90AF909F908F90EE
:100A50007F906F905F904F900895AF92BF92CF922A
:100A6000DF92EF92FF920F931F93CF93DF93CDB757
:100A7000DEB728970FB6F894DEBF0FBECDBF6B016F
:100A800059018091E6019091E701FB0191838083F8
:100A9000C90106969583848386E0DE011196019054
:100AA0000D928A95E1F7CE0101967C0105E010E0F8
:100AB000F70161917F01C8014F8358870E9430047C
:100AC0000F5F1F4F4F8158850B30110589F77A0151
:100AD000AE0CBF1CEA14FB0449F0F70161917F01E1
:100AE000C8010E9430040F5F1F4FF4CFF6018481CC
:100AF00015BE94E094BF83BF15BE14BE81E083BFD2
:100B000028960FB6F894DEBF0FBECDBFDF91CF9110
:100B10001F910F91FF90EF90DF90CF90BF90AF901B
:100B20000895CF93CFB7F8948091E901811127C040
:100B3000E9E4F1E08491E5E3F1E09491E82FF0E05D
:100B4000EE0FFF1FE35AFE4FA591B491EC91E923FC
:100B500021F461E08AE00E94540761E08AE00E948B
:100B600018078CB580618CBD8CB580648CBD61E04C
:100B70008DE00E94180761E08BE00E9418078091C9
:100B8000E9018F5F8093E901CFBFCF9108950F9363
:100B900000E020E040E060E08AEE91E00E94530631
:100BA0000F9108950F9300E020E040E060E080EFB7
:100BB00091E00E9453060F9108950F9300E020E00A
:100BC00040E060E08EEF91E00E94530686EF91E0F6
:100BD0000F910C9449060F9300E020E040E060E0A4
:100BE00084E092E00E9453060F91089546B767B7DC
:100BF00028B739B7862F90E0A0E0B0E0DC01992754
:100C00008827B42B832BBC01CD01722B08958F92C2
:100C10009F92AF92BF92CF92DF92EF92FF920F938B
:100C20001F93CF93DF937C018B016C0182E0C80E90
:100C3000D11C4701E5E08E0E911CC0E0D0E0F6012A
:100C400061916F014AE050E0C8010E94680A5C01AE
:100C50006EE2C8010E94A4098A0D9B1DC80FD91F0E
:100C6000C814D90461F74AE050E0F7016581C80172
:100C70000E94680A8C0F9D1FDF91CF911F910F91E9
:100C8000FF90EF90DF90CF90BF90AF909F908F90AC
:100C9000089529EB31E0FC01318320831282138215
:100CA0001482158208950F93FC0189EB91E09183E2
:100CB000808362834383248305830F910895EAE050
:100CC000F2E089EB91E09183808312821382148297
:100CD000158208951F920F920FB60F9211242F9331
:100CE0003F938F939F93AF93BF9380911102909105
:100CF0001202A0911302B09114023091100223E06D
:100D0000230F2D3720F40196A11DB11D05C026E843
:100D1000230F0296A11DB11D209310028093110292
:100D200090931202A0931302B093140280911502C3
:100D300090911602A0911702B09118020196A11D80
:100D4000B11D8093150290931602A0931702B093E1
:100D50001802BF91AF919F918F913F912F910F906A
:100D60000FBE0F901F901895789484B5826084BD53
:100D700084B5816084BD85B5826085BD85B581609F
:100D800085BDEEE6F0E0808181608083E1E8F0E0FF
:100D90001082808182608083808181608083E0E82E
:100DA000F0E0808181608083E1EBF0E0808184600D
:100DB0008083E0EBF0E0808181608083EAE7F0E00F
:100DC0008081846080838081826080838081816073
:100DD00080838081806880831092C1000895833071
:100DE00081F028F4813099F08230A1F008958730A5
:100DF000A9F08830B9F08430D1F4809180008F7DE3
:100E000003C0809180008F7780938000089584B51F
:100E10008F7702C084B58F7D84BD08958091B00026
:100E20008F7703C08091B0008F7D8093B0000895CC
:100E3000CF93DF9390E0FC01E55DFE4F2491FC0130
:100E4000E15CFE4F8491882361F190E0880F991F47
:100E5000FC01E35AFE4FC591D491FC01ED5AFE4FBF
:100E6000A591B491611109C09FB7F894888120952C
:100E700082238883EC912E230BC0623061F49FB7EC
:100E8000F8943881822F809583238883EC912E2BD0
:100E90002C939FBF06C08FB7F894E8812E2B288330
:100EA0008FBFDF91CF9108951F93CF93DF93282FAA
:100EB00030E0F901E95EFE4F8491F901E55DFE4FF6
:100EC000D491F901E15CFE4FC491CC23C9F0162FF7
:100ED00081110E94EF06EC2FF0E0EE0FFF1FED5A9C
:100EE000FE4FA591B4918FB7F894111105C09C9154
:100EF000ED2FE095E92302C0EC91ED2BEC938FBF31
:100F0000DF91CF911F910895FC01918D228D892F42
:100F100090E0805C9F4F821B91098F739927089501
:100F2000FC01918D828D981731F0828DE80FF11DB3
:100F3000858D90E008958FEF9FEF0895FC01918DCE
:100F4000828D981761F0828DDF01A80FB11D5D962B
:100F50008C91928D9F5F9F73928F90E008958FEF99
:100F60009FEF089587E099E0892B49F080E090E0B9
:100F7000892B29F00E94070981110C940000089523
:100F8000FC01848DDF01A80FB11DA35ABF4F2C9126
:100F9000848D90E001968F739927848FA689B789F5
:100FA0002C93A089B1898C9180648C93938D848DCE
:100FB000981306C00288F389E02D80818F7D80839D
:100FC0000895CF93DF93EC01888D8823C9F0EA89D7
:100FD000FB89808185FD05C0A889B9898C9186FD32
:100FE0000FC00FB607FCF5CF808185FFF2CFA8892F
:100FF000B9898C9185FFEDCFCE010E94C007E7CF64
:10100000DF91CF910895EF92FF920F931F93CF93AB
:10101000DF93EC0181E0888F9B8D8C8D981305C048
:10102000E889F989808185FD24C0F62E0B8D10E0BA
:101030000F5F1F4F0F731127E02E8C8DE8120CC02D
:101040000FB607FCFACFE889F989808185FFF5CFD3
:10105000CE010E94C007F1CF8B8DFE01E80FF11D7C
:10106000E35AFF4FF0820B8FEA89FB89808180620F
:1010700007C0EE89FF896083E889F98980818064EF
:10108000808381E090E0DF91CF911F910F91FF90DD
:10109000EF900895CF92DF92EF92FF921F93CF933C
:1010A000DF93EC016A017B01122FE889F98982E064
:1010B00080834115514E61057105B1F060E079E022
:1010C0008DE390E0A70196010E94BE0ADA01C901F2
:1010D0000197A109B109B695A79597958795AC0198
:1010E000411580E15807A8F0E889F989108260E885
:1010F00074E88EE190E0A70196010E94BE0ABA0151
:10110000A901415051096109710976956795579573
:101110004795EC85FD855083EE85FF854083188ECD
:10112000EC89FD891083EA89FB8980818061808355
:10113000EA89FB89808188608083EA89FB898081D4
:1011400080688083EA89FB8980818F7D8083DF913D
:10115000CF911F91FF90EF90DF90CF9008951F9255
:101160000F920FB60F9211242F938F939F93EF93AB
:10117000FF93E0912902F0912A028081E0912F02F1
:10118000F091300282FD12C09081809132028F5F17
:101190008F7320913302821751F0E0913202F0E018
:1011A000E75EFD4F958F8093320201C08081FF91F1
:1011B000EF919F918F912F910F900FBE0F901F90E5
:1011C00018951F920F920FB60F9211242F933F93F1
:1011D0004F935F936F937F938F939F93AF93BF933F
:1011E000EF93FF9389E192E00E94C007FF91EF9196
:1011F000BF91AF919F918F917F916F915F914F912F
:101200003F912F910F900FBE0F901F90189589E17D
:1012100092E00E94840721E0892B09F420E0822FCC
:101220000895E9E1F2E01382128288EE93E0A0E0F3
:10123000B0E084839583A683B7838FEB91E091839D
:10124000808385EC90E09587848784EC90E0978795
:10125000868780EC90E0918B808B81EC90E0938B83
:10126000828B82EC90E0958B848B86EC90E0978B60
:10127000868B118E128E138E148E0895CF92DF926C
:10128000EF92FF920F931F93CF93DF936C017A013C
:101290008B01C0E0D0E0CE15DF0589F0D8016D915B
:1012A0008D01D601ED91FC910190F081E02DC601F8
:1012B0000995892B11F47E0102C02196ECCFC7015C
:1012C000DF91CF911F910F91FF90EF90DF90CF9022
:1012D00008956115710579F0FB0101900020E9F78F
:1012E0003197AF01461B570BDC01ED91FC91028059
:1012F000F381E02D099480E090E00895EF92FF9251
:101300000F931F93CF93DF938C017B01C0E0D0E05C
:10131000F701EC0FFD1F6491662361F0D801ED9198
:10132000FC910190F081E02DC8010995892B11F005
:101330002196EECFCE01DF91CF911F910F91FF90BB
:10134000EF9008950C946909DC01ED91FC910190F6
:10135000F081E02D09946BEC71E00C9469090F9316
:101360001F93CF93DF93EC010E947E098C01CE0185
:101370000E94AB09800F911FDF91CF911F910F91B8
:1013800008954F925F926F927F92EF92FF920F9328
:101390001F93CF93DF93CDB7DEB7A1970FB6F89425
:1013A000DEBF0FBECDBF7C01FA01CB0119A22230F6
:1013B00008F42AE08E010F5D1F4F422E512C612C44
:1013C000712CBF01A30192010E94BE0AF901CA015A
:1013D000015011096A3014F4605D01C0695CD801E4
:1013E0006C93232B242B252B61F7B801C7010E9496
:1013F0006909A1960FB6F894DEBF0FBECDBFDF918D
:10140000CF911F910F91FF90EF907F906F905F9021
:101410004F900895CF92DF92EF92FF920F931F9318
:10142000CF93DF93EC016A017B012115310579F43B
:10143000E881F9810190F081E02D642FDF91CF9157
:101440001F910F91FF90EF90DF90CF9009942A3079
:101450003105E9F477FF1AC06DE20E94A4098C01FE
:1014600044275527BA014C195D096E097F092AE006
:10147000CE010E94C109800F911FDF91CF911F9172
:101480000F91FF90EF90DF90CF9008952AE0B70181
:10149000A601CE01DF91CF911F910F91FF90EF90A8
:1014A000DF90CF900C94C1099A01AB01770F660BC6
:1014B000770B0C940A0A2115310541F4DC01ED91FA
:1014C000FC910190F081E02D642F09940C94C109E6
:1014D0009A01462F50E060E070E00C945B0A0F9395
:1014E0001F93CF93DF93EC019A01462F50E060E009
:1014F00070E00E945B0A8C01CE010E94AB09800F54
:10150000911FDF91CF911F910F9108950F931F931A
:10151000CF93DF93EC019A01AB0160E070E00E9491
:101520005B0A8C01CE010E94AB09800F911FDF91F5
:10153000CF911F910F9108950F931F93CF93DF9336
:10154000EC010E945B0A8C01CE010E94AB09800F66
:10155000911FDF91CF911F910F91089508950E94DF
:10156000B4060E94AE0A0E941B03C2EBD7E00E94A1
:1015700082032097E1F30E94B207F9CFA1E21A2E6D
:10158000AA1BBB1BFD010DC0AA1FBB1FEE1FFF1F27
:10159000A217B307E407F50720F0A21BB30BE40B77
:1015A000F50B661F771F881F991F1A9469F76095BE
:1015B0007095809590959B01AC01BD01CF01089578
:1015C000EE0FFF1F0590F491E02D0994FB01DC0163
:1015D00002C001900D9241505040D8F70895F89400
:0215E000FFCF3B
:1015E200433A5C446F63756D656E747320616E641B
:1015F2002053657474696E67735C61707275737A77
:101602006B6F5C4D6F6A6520646F6B756D656E7490
:10161200795C41726475696E6F5C4F6269725246A1
:1016220032344E6574776F726B5F6E616E6F5250BB
:10163200435F636C69656E745F32303230303531CE
:10164200315C4F626972524632344E6574776F7202
:101652006B5F6E616E6F5250435F636C69656E744F
:101662005F32303230303531312E696E6F004D616C
:101672007920313220323032300030393A34373A40
:10168200313700526563696576696E6720657272EB
:101692006F723A20000000000007060000000003FD
:1016A200083E0984079E079007E1070D0A006E6154
:0C16B2006E00696E66006F7666002E0008
:00000001FF
