:100000000C9403010C942B010C942B010C942B01E8
:100010000C942B010C942B010C942B010C942B01B0
:100020000C942B010C942B010C942B010C942B01A0
:100030000C942B010C942B010C942B010C942B0190
:100040000C94A10D0C942B010C94F20F0C94241021
:100050000C942B010C942B010C942B010C942B0170
:100060000C942B010C942B01536574757020436123
:100070006C6C6261636B73002E004D7920495020D7
:10008000616464726573733A20005D0031303A3305
:10009000303A3231002C2000417072202032203260
:1000A000303230002C2000433A5C446F63756D653C
:1000B0006E747320616E642053657474696E677327
:1000C0005C61707275737A6B6F5C4D6F6A652064EA
:1000D0006F6B756D656E74795C41726475696E6F76
:1000E0005C4F6269724574685F636F6170736572BB
:1000F0007665725F32303230303430315C4F626955
:10010000724574685F636F61707365727665725F64
:1001100032303230303430312E696E6F00636F61AF
:100120007073657276657220696E69742E2E2E204A
:100130005B00696E666F20726571756573743A2035
:100140000074696D6520726571756573743A20007D
:100150004C45445354415445203D20747275653BD1
:10016000004C45445354415445203D2066616C7316
:10017000653B004C696768742072657175657374BE
:1001800000706F72743A200063616C6C6261636B23
:100190005F77656C6C5F6B6E6F776E2072657175E3
:1001A00065737400000000080002010000030407EA
:1001B0000000000000000000010204081020408040
:1001C00001020408102001020408102004040404A1
:1001D00004040404020202020202030303030303F1
:1001E00000000000250028002B0000000000240073
:1001F00027002A00AE04DF04EA043A055E07C107BF
:10020000960D5410C20411241FBECFEFD8E0DEBFFC
:10021000CDBF11E0A0E0B1E0ECEAF0E302C0059050
:100220000D92A03EB107D9F723E0A0EEB1E001C0E6
:100230001D92AE32B207E1F710E0C2E0D1E004C097
:100240002197FE010E945B13CA3FD107C9F70E94A4
:100250002A130C9449180C9400006F927F928F928D
:100260009F92AF92BF92CF92DF92EF92FF920F9345
:100270001F93CF93DF9300D000D000D0CDB7DEB76F
:100280007C018B013A0168E871E08DE892E00E9400
:10029000F01061E871E08DE892E00E94C1104AE040
:1002A00050E0B3018DE892E00E94A711F70120858C
:1002B00031858AEB91E09A838983F8018281938169
:1002C000A481B5818B839C83AD83BE831F921F92D3
:1002D000812C912C88E2A82EB12C95E4C92ED12C2A
:1002E00041E3E42EF12C0CE011E0A301BE016F5FAD
:1002F0007F4F81EE91E00E94730A0F900F90269637
:100300000FB6F894DEBF0FBECDBFDF91CF911F9126
:100310000F91FF90EF90DF90CF90BF90AF909F90A4
:100320008F907F906F9008956F927F928F929F929F
:10033000AF92BF92CF92DF92EF92FF920F931F93F3
:10034000CF93DF93CDB7DEB72C970FB6F894DEBF0F
:100350000FBECDBF8C015B016A018DB69EB6FC015C
:10036000878190E001962DB73EB7281B390B0FB659
:10037000F8943EBF0FBE2DBF8DB79EB701967C018E
:1003800063E771E08DE892E00E94F010F801678069
:10039000712C65817681A301C7010E945815F70170
:1003A000E60DF71D1082B701CE0107960E9440129C
:1003B00069E571E0CE0107960E940A13882329F0AF
:1003C0001092E00161E671E00DC06DE471E0CE01D4
:1003D00007960E940A13882349F081E08093E00188
:1003E00060E571E08DE892E00E94F0108091E001FC
:1003F000811117C060E082E00E94970EF80120850D
:1004000031858AEB91E09A838983F501828193811A
:10041000A481B5818B839C83AD83BE8309E511E004
:1004200016C061E082E00E94970EF80120853185B8
:100430008AEB91E09A838983F50182819381A4817B
:10044000B5818B839C83AD83BE830DE411E0A6014F
:10045000BE016F5F7F4F81EE91E00E944D0DCE0196
:1004600007960E94D2110FB6F8949EBE0FBE8DBEA5
:100470002C960FB6F894DEBF0FBECDBFDF91CF91A3
:100480001F910F91FF90EF90DF90CF90BF90AF90B2
:100490009F908F907F906F900895CF92DF92EF9210
:1004A000FF920F931F93CF93DF93CDB7DEB7C8585A
:1004B000D1090FB6F894DEBF0FBECDBF6C018B0122
:1004C000C957DF4F4883C758D040C857DF4F5883BC
:1004D000C858D0400E94EB0D9F938F937F936F93EA
:1004E0002EE331E03F932F93CE0101967C019F9341
:1004F0008F930E947115F601208531858AEB91E07A
:10050000CF57DF4F99838883C158D040F80182814B
:100510009381A481B581CD57DF4F88839983AA83C6
:10052000BB83C358D0408701C957DF4F4881C758A4
:10053000D040C857DF4F5881C858D040BE016F57D0
:100540007F4F81EE91E00E944D0D61E471E08DE8F6
:1005500092E00E94C110B7018DE892E00E94021162
:100560000FB6F894DEBF0FBECDBFC857DF4F0FB632
:10057000F894DEBF0FBECDBFDF91CF911F910F91D9
:10058000FF90EF90DF90CF900895CF92DF92EF929F
:10059000FF920F931F93CF93DF93CDB7DEB7C85869
:1005A000D1090FB6F894DEBF0FBECDBF8C016B0131
:1005B00086E491E09F938F932FE431E03F932F9354
:1005C0002BE531E03F932F93CE0101967C019F9361
:1005D0008F93C957DF4F4883C758D040C857DF4F64
:1005E0005883C858D0400E947115F8012085318584
:1005F0008AEB91E0CF57DF4F99838883C158D04071
:10060000F60182819381A481B581CD57DF4F888324
:100610009983AA83BB83C358D0408701C957DF4F52
:100620004881C758D040C857DF4F5881C858D0407C
:10063000BE016F577F4F81EE91E00E944D0D62E346
:1006400071E08DE892E00E94C110B7018DE892E060
:100650000E9402110FB6F894DEBF0FBECDBFC8577F
:10066000DF4F0FB6F894DEBF0FBECDBFDF91CF9145
:100670001F910F91FF90EF90DF90CF9008954F92D0
:100680005F926F927F928F929F92AF92BF92CF9222
:10069000DF92EF92FF920F931F93CF93DF9300D0DF
:1006A00000D000D0CDB7DEB76C017B01BA01CE011E
:1006B00001960E946C1246018EE3880E911C260161
:1006C000E2E04E0E511C340100E010E05201F30153
:1006D000819191913F01892B61F1BE016F5F7F4F45
:1006E000C2010E94F912882321F1025E1F4F000F00
:1006F000111FF601E00FF11FF382E282CE01019695
:100700000E94D21126960FB6F894DEBF0FBECDBF61
:10071000DF91CF911F910F91FF90EF90DF90CF90DD
:10072000BF90AF909F908F907F906F905F904F9011
:1007300008950F5F1F4FF6E04F0E511C0A30110550
:1007400031F620E030E0F401819191914F01892B45
:10075000B1F4F9017E96EE0FFF1FEC0DFD1DF38243
:10076000E28246E0429FC001439F900D1124BE01EA
:100770006F5F7F4F8A0D9B1D0E945512BFCF2F5F69
:100780003F4F2A303105F9F6B9CFEF92FF920F9320
:100790001F93CF93DF9300D000D000D0CDB7DEB74A
:1007A00026E040E052EC61E070E08DE892E00E94CB
:1007B0008D0F6DE171E08DE892E00E94C11067EA53
:1007C00070E08DE892E00E94C11064EA70E08DE86C
:1007D00092E00E94C11068E970E08DE892E00E940A
:1007E000C11065E970E08DE892E00E94C1106CE8EC
:1007F00070E08DE892E00E94C1106AE870E08DE838
:1008000092E00E94F01010EAE12E1FE0F12E00E0CD
:1008100010E020E63AEE40E050E066E071E084E669
:1008200092E00E94F5046AE770E08DE892E00E9491
:10083000C1108E010D5F1F4F7E0187E0E80EF11C95
:1008400064E672E0CE0101960E94F804F80161911D
:100850008F014AE050E08DE892E00E94CB1168E7FA
:1008600070E08DE892E00E94C1100E151F0541F75F
:100870008DE892E00E94EC1061E082E00E945B0E45
:1008800061E082E00E94970E81E08093E00168E6DB
:1008900070E08DE892E00E94F01064E771E0CE0114
:1008A00001960E944012AE014F5F5F4F6DE271E012
:1008B00081EE91E00E943F03CE0101960E94D21189
:1008C00065E871E0CE0101960E944012AE014F5FD3
:1008D0005F4F64E971E081EE91E00E943F03CE0139
:1008E00001960E94D2116BE871E0CE0101960E9440
:1008F0004012AE014F5F5F4F6DE472E081EE91E018
:100900000E943F03CE0101960E94D21169E371E07B
:10091000CE0101960E944012AE014F5F5F4F65EC21
:1009200072E081EE91E00E943F03CE0101960E94A9
:10093000D21181EE91E00E944C0826960FB6F894F1
:10094000DEBF0FBECDBFDF91CF911F910F91FF9002
:10095000EF90089581EE91E00C94C60A0F9300E0A9
:1009600020E040E060E082E592E00E94B50787E386
:1009700092E00E94440767E372E081EE91E00F91FC
:100980000C940608CF93DF9383EE91E0892B61F0FE
:10099000C0E0D0E0CE01875E9D4F0E94D211269725
:1009A000C43C8FEFD807B1F7DF91CF9108959CBF7A
:1009B0008BBF6ABF08959CBF8BBF8AB708950F9302
:1009C00000E020E040E060E088E592E00E94B507AA
:1009D0000F9108950F9300E020E040E060E08EE585
:1009E00092E00E94B5070F91089580E090E008958D
:1009F000EF92FF920F93CF93DF93CDB7DEB7289797
:100A00000FB6F894DEBF0FBECDBF7C010E94AB07CE
:100A10008AE090E00E94DB04082F89E090E00E94C9
:100A2000DB04282F88E090E028870E94DB04482F11
:100A300087E090E04F830E94DB04682F28854F8178
:100A4000CE0101960E94B5078B819C81AD81BE814C
:100A5000F70182839383A483B583C70128960FB6D9
:100A6000F894DEBF0FBECDBFDF91CF910F91FF9005
:100A7000EF9008950F9300E020E040E060E08CE606
:100A800092E00E94B50784E692E00F910C94AB07C8
:100A9000DC01ED91FC91008CF18DE02D09942AEBA5
:100AA00031E0FC0131832083FB0140895189628957
:100AB0007389FC0142835383648375830895FC0129
:100AC000848995890895DC01ED91FC910688F78968
:100AD000E02D099408950895CF93DF931F92CDB729
:100AE000DEB76983DC01ED91FC910280F381E02D9A
:100AF00041E050E0BE016F5F7F4F09950F90DF919D
:100B0000CF910895CF93DF931F92CDB7DEB7DC016D
:100B1000ED91FC91008CF18DE02D41E050E0BE01A3
:100B20006F5F7F4F0995181619061CF4898190E0B4
:100B300002C08FEF9FEF0F90DF91CF91089580E07B
:100B400090E0089581E00895CF93C62F672F8BE042
:100B500090E00E94D7046C2F8CE090E00E94D704B4
:100B600063E080E090E00E94D70481E0CF91089597
:100B70006FEF80E090E00E94D70462E080E090E0B8
:100B80000E94D70480E090E0089560E085EE97E051
:100B90000E94D70460E086EE97E00C94D704EF92B1
:100BA000FF920F931F93CF93DF9300D0CDB7DEB7A3
:100BB000FB0102811381F480E58061E080E090E038
:100BC0004A8359830E94D704602F8DE090E00E94F1
:100BD000D704612F8EE090E00E94D7046F2D8FE044
:100BE00090E00E94D7046E2D80E190E00E94D7042F
:100BF0005981652F81E190E00E94D7044A81642FDA
:100C000082E190E00E94D70481E090E00F900F9085
:100C1000DF91CF911F910F91FF90EF9008958F92E8
:100C20009F92AF92BF92CF92DF92EF92FF920F937B
:100C30001F93CF93DF9300D0CDB7DEB77A0183E166
:100C400090E069837A830E94DB04182F84E190E0AE
:100C50000E94DB04212F30E0322F22274901882A0D
:100C60006981062F7A81172F640185E1C80ED11C96
:100C70005801AE0CBF1C0A151B0551F0F80161911B
:100C80008F01C6010E94D704FFEFCF1ADF0AF3CF0E
:100C9000E80CF91C6F2D83E190E00E94D7046E2DC3
:100CA00084E190E00E94D70480E090E00F900F90E4
:100CB000DF91CF911F910F91FF90EF90DF90CF9038
:100CC000BF90AF909F908F9008958F929F92AF9218
:100CD000BF92CF92DF92EF92FF920F931F93CF9329
:100CE000DF9300D0CDB7DEB77A0187EE97E0698356
:100CF0007A830E94DB04082F88EE97E00E94DB04D1
:100D000010E0102F0027082B85EE97E00E94DB04EF
:100D1000D82E86EE97E00E94DB042D2D30E0322F96
:100D20002227282B4901801A910A69817A818E1421
:100D30009F0408F04701680187E1C81A88EFD80AC4
:100D40007B015B01A80CB91CEA14FB0451F0C6013D
:100D50000E94DB04F70181937F01FFEFCF1ADF0AC6
:100D6000F3CF080D191D612F87EE97E00E94D7047D
:100D7000602F88EE97E00E94D704C4010F900F9077
:100D8000DF91CF911F910F91FF90EF90DF90CF9067
:100D9000BF90AF909F908F900895AF92BF92CF92E7
:100DA000DF92EF92FF920F931F93CF93DF93CDB714
:100DB000DEB728970FB6F894DEBF0FBECDBF6C012B
:100DC00085EE97E00E94DB04A82E86EE97E00E9455
:100DD000DB04E82E87EE97E00E94DB04B82E88EE55
:100DE00097E00E94DB04F82E80E190E00E94DB0493
:100DF000082F8FE090E00E94DB04282F8EE090E027
:100E000028870E94DB04482F8DE090E04F830E94EA
:100E1000DB04682F28854F81CE0101960E94B5071B
:100E20008B819C81AD81BE81F601808B918BA28BE1
:100E3000B38B81E190E00E94DB04182F82E190E007
:100E40000E94DB04212F30E0322F2227282BF601CD
:100E5000358B248B4E2D50E0CA019A292F2D30E07E
:100E60003B29821B930B28960FB6F894DEBF0FBE6A
:100E7000CDBFDF91CF911F910F91FF90EF90DF9049
:100E8000CF90BF90AF900895CF93DF93EC011B827A
:100E90001A8288EE93E0A0E0B0E08C839D83AE835D
:100EA000BF8384E991E099838883CE010E960E94E6
:100EB000AB0784E0888FDF91CF9108950F9300E016
:100EC00020E040E060E082E792E00E94B5070F91E9
:100ED00008958F929F92AF92BF92CF92DF92EF923E
:100EE000FF920F931F93CF93DF937C018B016C01D3
:100EF00082E0C80ED11C4701E5E08E0E911CC0E0D7
:100F0000D0E0F60161916F014AE050E0C8010E9413
:100F1000CB115C016EE2C8010E94E5108A0D9B1D99
:100F2000C80FD91FC814D90461F74AE050E0F7018F
:100F30006581C8010E94CB118C0F9D1FDF91CF915D
:100F40001F910F91FF90EF90DF90CF90BF90AF90E7
:100F50009F908F9008952AEB31E0FC01318320832C
:100F6000128213821482158208950F93FC018AEB7A
:100F700091E09183808362834383248305830F916F
:100F80000895E8E7F2E08AEB91E091838083128292
:100F90001382148215820895AF92BF92CF92DF928E
:100FA000EF92FF920F931F93CF93DF937C015B012E
:100FB0006C018CE3C80ED11C8701C0E0D0E0F601C3
:100FC000819191916F01892B71F0B501C8010E9447
:100FD000F912882341F06E96CC0FDD1FCE0DDF1D78
:100FE0008881998108C021960A5F1F4FCA30D105B8
:100FF00031F780E090E0DF91CF911F910F91FF904A
:10100000EF90DF90CF90BF90AF900895AF92BF92D6
:10101000CF92DF92EF92FF920F931F93CF93DF93C4
:101020007C016B01EC0122968C01025C1F4F5E017A
:1010300060ED71E0CE010E9440122696C017D107E4
:10104000B9F78501570182E5A80EB11C60ED71E08A
:10105000C8010E947512199219920A5F1F4FCA1592
:10106000DB05A1F7F701D182C082DF91CF911F91FB
:101070000F91FF90EF90DF90CF90BF90AF900895C9
:10108000DC018D919C91DC01ED91FC910484F5854E
:10109000E02D099581E0089563E376E10E94400820
:1010A00081E008952F923F924F925F926F927F92CC
:1010B0008F929F92AF92BF92CF92DF92EF92FF9268
:1010C0000F931F93CF93DF93CDB7DEB7C855D109E8
:1010D0000FB6F894DEBF0FBECDBF2C017B01649626
:1010E0005FAF4EAF649766963FAF2EAF6697DB015A
:1010F00014960C911497802F8F70282F20649C9148
:101100009370B0E19B9FC0011124822B8983FB0166
:1011100081818A83808591859B838C8362817381A1
:101120006115710589F0003178F410E0A801CE0155
:1011300005960E945815E5E0F0E0EC0FFD1FE00F6A
:10114000F11F0C5F1F4F04C004E010E0FE01359654
:1011500047012CE0820E911C612C712C20E030E0C4
:10116000D7011A968C911A9790E0681679060CF0C0
:101170005FC0D4018C91A82EB12CA8014B5F5F4FAA
:101180004A0D5B1D4B34510508F0ACC011979C9182
:10119000292E312CA101421B530B9A0160E070E013
:1011A0004D3051056105710520F4D22E8D3080F04F
:1011B0000AC04D3091E059076105710508F4BFC0C0
:1011C000C8C03DE0D32EADE06996AFAF699703C0CC
:1011D00069968FAF699790E1D99ED00111246896E6
:1011E000BFAFAEAF68976796AFAD67976996BFAD73
:1011F0006997AB2BA0839DE0D91209C06F01A2E0D3
:10120000CA0ED11C2D5021830F5F1F4F72C0BEE04C
:10121000DB126BC04D5051406109710951836F0160
:1012200043E0C40ED11C2D5022830E5F1F4F61C0BE
:1012300017964C911797442391F050E0CA010196FC
:10124000080F191F0B34110508F04CC08FEF819364
:1012500015966D917C911697CF010E945815F20159
:1012600080819181DC01ED91FC910088F189E02D74
:101270002AEB31E02E963FAF2EAF2E976496AEAD9F
:10128000BFAD649712964D915D916D917C911597CC
:1012900062964CAF5DAF6EAF7FAF629766964EAD14
:1012A0005FAD6697BE01645B7F4F0995F201808157
:1012B0009181DC01ED91FC910280F381E02DA80188
:1012C000BE016F5F7F4F0995F20180819181DC0142
:1012D000ED91FC910488F589E02D0995F701808551
:1012E000918543C080E090E040C06F012FEFC21AAB
:1012F000D20A69963FAD69973D3041F48D50D601D1
:101300008C930F5F1F4FF60131966F01D401119638
:101310006D917C911297A501C6010E945815F601A6
:10132000EA0DFB1DBFEFAB1ABB0A0A0D1B1D2FEF09
:10133000621A720A34E0830E911C910111CF8D3034
:1013400008F03FCF982F906D908369968FAF699783
:1013500055CF8D3038F4982F906E908369968FAF6B
:10136000699758CF9EE0D92E2ECFC85ADF4F0FB6BF
:10137000F894DEBF0FBECDBFDF91CF911F910F91CB
:10138000FF90EF90DF90CF90BF90AF909F908F90A5
:101390007F906F905F904F903F902F9008958F9225
:1013A0009F92AF92BF92DF92EF92FF920F931F93A3
:1013B000CF93DF935A014901D9014D915C910115F9
:1013C000110509F482C0EA019881892F82958F70F6
:1013D0009F70E92E8D3061F40230110508F475C05C
:1013E000898190E00D96DA011196D2E0FD2E1CC0A5
:1013F00090E08E30910589F40330110508F465C042
:10140000898190E0982F8827EA818E2B835F9E4FF9
:10141000DA011296C3E0FC2E07C08F30910509F463
:1014200054C0DA01FF24F394FDE0EF120EC0F394F0
:10143000EF2DF0E00E171F0708F447C01196EC914E
:101440001197F0E03D9611961EC0EE2DF0E03EE0C3
:10145000D32EED1015C0F394F394EF2DF0E00E179A
:101460001F0798F11196EC911197F0E0FE2FEE27EF
:101470001296FC901297EF29E35FFE4F129603C07D
:10148000EF30F10511F17F012FEFE21AF20AEA0EB7
:10149000FB1E040F151F0E151F05B8F0E50148814E
:1014A000480FEB0148831196BB83AA83E983F401BB
:1014B000F182E082D5012D913C911197820F931F0B
:1014C0008D939C9380E090E002C08FEF9FEFDF91BF
:1014D000CF911F910F91FF90EF90DF90BF90AF9051
:1014E0009F908F9008958F929F92AF92BF92CF92CC
:1014F000EF920F931F93CF93DF93CDB7DEB7EB97A8
:101500000FB6F894DEBF0FBECDBFF90129962FADFF
:10151000299732E03983CA829C828B822D831F8374
:101520000E83E886FA87E987BAAEABAEFE01FA967B
:10153000FF87EE873D872CE02C8721E02B872AEB65
:1015400031E03DAB2CABFB0102811381248135815D
:101550000EAB1FAB28AF39AF9A01AE014C5C5F4FA9
:10156000BE016F5F7F4F0E945208EB960FB6F89452
:10157000DEBF0FBECDBFDF91CF911F910F91EF90D6
:10158000CF90BF90AF909F908F9008952F923F92F1
:101590004F925F926F927F928F929F92AF92BF9283
:1015A000CF92DF92EF92FF920F931F93CF93DF932F
:1015B000CDB7DEB7CA59D1090FB6F894DEBF0FBE5A
:1015C000CDBF3C012DB73EB7CD56DF4F39832883C1
:1015D000C359D040DC018D919D91CF56DF4FB98327
:1015E000A883C159D040DC01ED91FC910688F789B0
:1015F000E02D0995AC01990F660B770BECE4F0E058
:10160000EC0FFD1F3C96CB56DF4FF983E883C5599D
:10161000D04093012E5A3F4FC956DF4F398328835C
:10162000C759D0408CE490E08C0F9D1F0B96C75695
:10163000DF4F99838883C959D040141615061606C2
:1016400017060CF004C2D3018D919C91DC01ED9141
:10165000FC914C3451056105710524F04BE450E0D8
:1016600060E070E0008CF18DE02DBE016F5F7F4F78
:1016700009956C01092E000CEE08FF08B4E0CB16AA
:10168000D104E104F10444F02981322F32953695DA
:1016900036953370313021F0F30180819181CBC1D7
:1016A000422F407350E064E0559547956A95E1F705
:1016B0002D964FAF2D972F7061962FAF61973A817E
:1016C0002E963FAF2E974B8150E0542F44273C81FC
:1016D000432B66965FAF4EAF6697211105C06096AB
:1016E0001FAE1EAE60970BC0293008F0A1C1E5E027
:1016F000F0E0EC0FFD1F6096FFAFEEAF609730E0BB
:101700002C5F3F4FA901032E000C660B770B4C1585
:101710005D056E057F050CF06BC0CB57DF4F19825E
:101720001882C558D040EE24E394F12CEC0EFD1E37
:10173000E80EF91EE1E0F0E0EC0FFD1F2E0F3F1F59
:10174000C158DF4F39832883CF57D040C756DF4F6A
:1017500048805980C959D040C12CD12CC158DF4F85
:10176000E881F981CF57D04080818F3FF1F0EE15AD
:10177000FF05D8F487010E1B1F0B9E0121583F4F18
:10178000AE014B575F4FB201C3010E94CF09892BB5
:1017900011F080E05DC1FFEFCF1ADF0A24E0420EB6
:1017A000511C3AE0C316D104C9F66796CFAE6797CD
:1017B000C158DF4FE881F981CF57D040CF01019662
:1017C0008E159F0570F420812F3F59F463969FAFCB
:1017D0008EAF6397A701481B590B64964FAF649770
:1017E00007C063961FAE1EAE639764961FAE6497E4
:1017F0002D968FAD2D97823051F5C956DF4FA881B8
:10180000B981C759D0400D911C91F301808191811C
:10181000DC01ED91FC91068CF78DE02D09957C01A2
:10182000F30160817181DB01ED91FC91048CF58DF8
:10183000E02DCE0181589F4F0995A701BE01615847
:101840007F4FCE01845B9F4FF8010995F1C0811154
:10185000EFC060ED71E0CE0185579F4F0E944012AE
:10186000CB56DF4F08811981C559D040E12CF12CAE
:1018700067968FAD679790E0E816F9060CF049C0BF
:10188000F801319780818B30F1F5D801EC91EE238E
:10189000D1F14DB65EB62E2E312CC1010196EDB7B9
:1018A000FEB7E81BF90B0FB6F894FEBF0FBEEDBFF5
:1018B0002DB73EB72F5F3F4F690111966D917C9117
:1018C0001297A101C9010E945815F601E20DF31DFE
:1018D0001082C157DF4F88819981CF58D040892B22
:1018E00039F06CEB71E0CE0185579F4F0E94BA1220
:1018F000B601CE0185579F4F0E94BA120FB6F894D9
:101900005EBE0FBE4DBE3FEFE31AF30A0C5F1F4FE2
:10191000AFCFBE0165577F4FCE0181589F4F0E94C8
:101920006C12BE0161587F4FCF56DF4F888199817D
:10193000C159D0400E94CC078C01CE0181589F4FE5
:101940000E94D211012BA9F566962EAC3FAC66978A
:10195000D3018D919C91DC01ED91FC91068CF78D6A
:10196000E02D09952C01F30160817181DB01ED917E
:10197000FC91048CF58DE02DCE0181589F4F099587
:101980001F921F92812C912CAA24AA94BA2C94E81D
:10199000C92ED12CE12CF12C00E010E09101A20124
:1019A000BE0161587F4FC3010E94730A0F900F90D0
:1019B0003AC0BE0165577F4FCE018B579F4F0E94A3
:1019C0006C12BE016B577F4FCF56DF4F88819981D4
:1019D000C159D0400E94CC078C01F30180819181D4
:1019E000DC01ED91FC91068CF78DE02D09957C01D1
:1019F000F30160817181DB01ED91FC91048CF58D27
:101A0000E02DCE0181589F4F0995A701BE01615875
:101A10007F4FCE01845B9F4FF8010995CE018B5714
:101A20009F4F0E94D211CE0185579F4F0E94D21125
:101A3000D3018D919C91DC01ED91FC910688F78991
:101A4000E02D0995AC01990F660B770BF6CD81E07F
:101A5000CD56DF4FE881F981C359D0400FB6F894D5
:101A6000FEBF0FBEEDBFC656DF4F0FB6F894DEBF08
:101A70000FBECDBFDF91CF911F910F91FF90EF90DF
:101A8000DF90CF90BF90AF909F908F907F906F909E
:101A90005F904F903F902F9008958F929F92AF92BA
:101AA000BF92CF92DF92EF92FF920F931F93CF934B
:101AB000DF9300D000D000D0CDB7DEB7F8010190A1
:101AC0000020E9F731977F01E01AF10AEAEBF1E033
:101AD000FA83E983FB0182809380A480B5808B82A6
:101AE0009C82AD82BE821F921F92812C912CA12CD0
:101AF000B12C65E4C62ED12CBE016F5F7F4F0E94D2
:101B0000730A0F900F9026960FB6F894DEBF0FBEA3
:101B1000CDBFDF91CF911F910F91FF90EF90DF909C
:101B2000CF90BF90AF909F908F9008950F9300E05B
:101B300020E040E060E08EE792E00E94B5070F9160
:101B400008951F920F920FB60F9211242F933F9377
:101B50008F939F93AF93BF9380918502909186025C
:101B6000A0918702B09188023091840223E0230F74
:101B70002D3720F40196A11DB11D05C026E8230FC5
:101B80000296A11DB11D209384028093850290933B
:101B90008602A0938702B093880280918902909177
:101BA0008A02A0918B02B0918C020196A11DB11DF9
:101BB0008093890290938A02A0938B02B0938C0247
:101BC000BF91AF919F918F913F912F910F900FBE39
:101BD0000F901F9018952FB7F8946091850270911F
:101BE000860280918702909188022FBF0895789491
:101BF00084B5826084BD84B5816084BD85B5826012
:101C000085BD85B5816085BDEEE6F0E080818160AF
:101C10008083E1E8F0E010828081826080838081AF
:101C200081608083E0E8F0E0808181608083E1EB87
:101C3000F0E0808184608083E0EBF0E0808181606F
:101C40008083EAE7F0E08081846080838081826025
:101C5000808380818160808380818068808310920E
:101C6000C1000895833081F028F4813099F08230EA
:101C7000A1F008958730A9F08830B9F08430D1F40C
:101C8000809180008F7D03C0809180008F7780934A
:101C90008000089584B58F7702C084B58F7D84BDA0
:101CA00008958091B0008F7703C08091B0008F7D40
:101CB0008093B0000895CF93DF9390E0FC01E85447
:101CC000FE4F2491FC01E453FE4F8491882361F17F
:101CD00090E0880F991FFC01E651FE4FC591D49109
:101CE000FC01E052FE4FA591B491611109C09FB76C
:101CF000F8948881209582238883EC912E230BC051
:101D0000623061F49FB7F8943881822F80958323E5
:101D10008883EC912E2B2C939FBF06C08FB7F8942D
:101D2000E8812E2B28838FBFDF91CF9108951F93D9
:101D3000CF93DF93282F30E0F901EC55FE4F8491CB
:101D4000F901E854FE4FD491F901E453FE4FC491D8
:101D5000CC23C9F0162F81110E94320EEC2FF0E037
:101D6000EE0FFF1FE052FE4FA591B4918FB7F8948C
:101D7000111105C09C91ED2FE095E92302C0EC9173
:101D8000ED2BEC938FBFDF91CF911F910895FC0154
:101D9000918D228D892F90E0805C9F4F821B91094D
:101DA0008F7399270895FC01918D828D981731F0DA
:101DB000828DE80FF11D858D90E008958FEF9FEFE4
:101DC0000895FC01918D828D981761F0828DDF015D
:101DD000A80FB11D5D968C91928D9F5F9F73928F1E
:101DE00090E008958FEF9FEF08958AE490E1892BAA
:101DF00049F080E090E0892B29F00E944A1081117F
:101E00000C9400000895FC01848DDF01A80FB11D22
:101E1000A35ABF4F2C91848D90E001968F73992720
:101E2000848FA689B7892C93A089B1898C9180640D
:101E30008C93938D848D981306C00288F389E02DCE
:101E400080818F7D80830895CF93DF93EC01888D0F
:101E50008823C9F0EA89FB89808185FD05C0A889AE
:101E6000B9898C9186FD0FC00FB607FCF5CF808134
:101E700085FFF2CFA889B9898C9185FFEDCFCE017E
:101E80000E94030FE7CFDF91CF910895EF92FF9269
:101E90000F931F93CF93DF93EC0181E0888F9B8D8D
:101EA0008C8D981305C0E889F989808185FD24C04F
:101EB000F62E0B8D10E00F5F1F4F0F731127E02ED2
:101EC0008C8DE8120CC00FB607FCFACFE889F989AF
:101ED000808185FFF5CFCE010E94030FF1CF8B8D5E
:101EE000FE01E80FF11DE35AFF4FF0820B8FEA89E4
:101EF000FB898081806207C0EE89FF896083E88961
:101F0000F98980818064808381E090E0DF91CF91C6
:101F10001F910F91FF90EF900895CF92DF92EF9273
:101F2000FF921F93CF93DF93EC016A017B01122F85
:101F3000E889F98982E080834115514E6105710578
:101F4000B1F060E079E08DE390E0A70196010E9496
:101F50003913DA01C9010197A109B109B695A7950D
:101F600097958795AC01411580E15807A8F0E8895D
:101F7000F989108260E874E88EE190E0A70196018B
:101F80000E943913BA01A90141505109610971092F
:101F90007695679557954795EC85FD855083EE8539
:101FA000FF854083188EEC89FD891083EA89FB89BF
:101FB000808180618083EA89FB8980818860808359
:101FC000EA89FB89808180688083EA89FB89808136
:101FD0008F7D8083DF91CF911F91FF90EF90DF90F5
:101FE000CF9008951F920F920FB60F9211242F9346
:101FF0008F939F93EF93FF93E0919D02F0919E0248
:102000008081E091A302F091A40282FD12C0908130
:102010008091A6028F5F8F732091A702821751F0E3
:10202000E091A602F0E0E357FD4F958F8093A60262
:1020300001C08081FF91EF919F918F912F910F901F
:102040000FBE0F901F9018951F920F920FB60F9210
:1020500011242F933F934F935F936F937F938F93AD
:102060009F93AF93BF93EF93FF938DE892E00E940D
:10207000030FFF91EF91BF91AF919F918F917F914E
:102080006F915F914F913F912F910F900FBE0F90E5
:102090001F9018958DE892E00E94C70E21E0892BD1
:1020A00009F420E0822F0895EDE8F2E01382128215
:1020B00088EE93E0A0E0B0E084839583A683B783A5
:1020C00082EC91E09183808385EC90E09587848712
:1020D00084EC90E09787868780EC90E0918B808BF2
:1020E00081EC90E0938B828B82EC90E0958B848BDB
:1020F00086EC90E0978B868B118E128E138E148E49
:102100000895CF92DF92EF92FF920F931F93CF9398
:10211000DF936C017A018B01C0E0D0E0CE15DF05C2
:1021200089F0D8016D918D01D601ED91FC9101905E
:10213000F081E02DC6010995892B11F47E0102C0C2
:102140002196ECCFC701DF91CF911F910F91FF90A6
:10215000EF90DF90CF9008956115710579F0FB0144
:1021600001900020E9F73197AF01461B570BDC01C6
:10217000ED91FC910280F381E02D099480E090E0E4
:102180000895EF92FF920F931F93CF93DF938C01EB
:102190007B01C0E0D0E0F701EC0FFD1F64916623E6
:1021A00061F0D801ED91FC910190F081E02DC80122
:1021B0000995892B11F02196EECFCE01DF91CF91B9
:1021C0001F910F91FF90EF900895DC01ED91FC912C
:1021D0000190F081E02D09946EEC71E00C94AC104C
:1021E0000F931F93CF93DF93EC010E94C1108C01DA
:1021F000CE010E94EC10800F911FDF91CF911F91B3
:102200000F9108950F931F93CF93DF93EC010E94DA
:10221000AC108C01CE010E94EC10800F911FDF9159
:10222000CF911F910F9108954F925F926F927F927D
:10223000EF92FF920F931F93CF93DF93CDB7DEB74B
:10224000A1970FB6F894DEBF0FBECDBF7C01FA0197
:10225000CB0119A2223008F42AE08E010F5D1F4F36
:10226000422E512C612C712CBF01A30192010E94BE
:102270003913F901CA01015011096A3014F4605D83
:1022800001C0695CD8016C93232B242B252B61F7AB
:10229000B801C7010E94AC10A1960FB6F894DEBF3A
:1022A0000FBECDBFDF91CF911F910F91FF90EF90A7
:1022B0007F906F905F904F900895CF92DF92EF9252
:1022C000FF920F931F93CF93DF93EC016A017B0181
:1022D0002115310579F4E881F9810190F081E02D33
:1022E000642FDF91CF911F910F91FF90EF90DF90BE
:1022F000CF9009942A303105E9F477FF1AC06DE2D6
:102300000E94E5108C0144275527BA014C195D093C
:102310006E097F092AE0CE010E941411800F911FDF
:10232000DF91CF911F910F91FF90EF90DF90CF90B1
:1023300008952AE0B701A601CE01DF91CF911F9148
:102340000F91FF90EF90DF90CF900C9414110F93AA
:102350001F93CF93DF93EC019A01AB01770F660BCC
:10236000770B0E945D118C01CE010E94EC10800F52
:10237000911FDF91CF911F910F9108952115310584
:1023800041F4DC01ED91FC910190F081E02D642F8E
:1023900009940C9414119A01462F50E060E070E00B
:1023A0000C94BE11FC01808191810C94F613CF93A3
:1023B000DF93EC0188819981009711F00E94F61358
:1023C000198218821D821C821B821A82DF91CF9192
:1023D00008950F931F93CF93DF93EC018B016F5FF1
:1023E0007F4F888199810E948E14009731F09983E4
:1023F00088831B830A8381E001C080E0DF91CF9155
:102400001F910F910895CF93DF93EC0188819981FB
:10241000892B29F08A819B818617970760F4CE016A
:102420000E94E911882341F08C819D81892B19F448
:10243000E881F981108281E0DF91CF910895EF92D8
:10244000FF920F931F93CF93DF93EC017B018A01DF
:10245000BA010E940312811104C0CE010E94D7115B
:1024600007C01D830C83B701888199810E946A157A
:10247000CE01DF91CF911F910F91FF90EF900895C2
:10248000FC0111821082138212821582148261155E
:10249000710551F0FB0101900020E9F73197AF0180
:1024A000461B570B0C941F120895CF93DF93EC013A
:1024B000FB018617970761F06081718161157105D5
:1024C00029F0448155810E941F1202C00E94D71139
:1024D000CE01DF91CF910895FC0111821082138209
:1024E0001282158214820C945512CF93DF93EC0163
:1024F0006115710559F0FB0101900020E9F7319752
:10250000AF01461B570B0E941F1202C00E94D71139
:10251000CE01DF91CF910895EF92FF920F931F9319
:10252000CF93DF93FC01248135816115710511F48E
:1025300080E019C041155105A9F07B01EC018A0129
:10254000020F131FB8010E940312882389F3288108
:1025500039818C819D81B701820F931F0E946A157A
:102560001D830C8381E0DF91CF911F910F91FF902C
:10257000EF9008956115710551F0FB010190002065
:10258000E9F73197AF01461B570B0C948C1280E092
:102590000895CF93DF93DC01ED91FC91EB01A881CD
:1025A000B981309711F01097C9F4109759F0EB01E9
:1025B0002C813D81232B31F08C9190E09195819578
:1025C000910914C0309781F0DC0114968D919C9193
:1025D0001597892B49F0808190E008C0BD01CF019B
:1025E000DF91CF910C94611580E090E0DF91CF9165
:1025F0000895FC0144815581FB01248135814217F6
:10260000530729F40E94C91221E0892B09F020E028
:10261000822F0895FC0124813581232B31F421E0A0
:1026200061157105A1F0FB0108C0FC018081918159
:102630006115710531F421E0FC018081882339F0B6
:1026400005C00E94611521E0892B09F020E0822F4E
:10265000089508950E94F70D0E9429130E94C50352
:10266000C5EFDEE00E94AA042097E1F30E94F50E78
:10267000F9CFA1E21A2EAA1BBB1BFD010DC0AA1F98
:10268000BB1FEE1FFF1FA217B307E407F50720F0DB
:10269000A21BB30BE40BF50B661F771F881F991F56
:1026A0001A9469F760957095809590959B01AC019F
:1026B000BD01CF010895EE0FFF1F0590F491E02DAD
:1026C0000994CF93DF938230910510F482E090E07B
:1026D000E0912C03F0912D0320E030E0C0E0D0E049
:1026E000309711F14081518148175907C0F04817C0
:1026F000590761F482819381209719F09B838A8323
:102700002BC090932D0380932C0326C021153105F7
:1027100019F04217530718F49A01BE01DF01EF01C7
:102720000280F381E02DDCCF2115310509F1281B52
:10273000390B2430310590F412968D919C911397AA
:102740006115710521F0FB019383828304C090938E
:102750002D0380932C03FD01329644C0FD01E20F4E
:10276000F31F81939193225031092D933C933AC0EA
:1027700020912A0330912B03232B41F42091020155
:102780003091030130932B0320932A032091000101
:10279000309101012115310541F42DB73EB740912B
:1027A000040150910501241B350BE0912A03F0919F
:1027B0002B03E217F307A0F42E1B3F0B2817390752
:1027C00078F0AC014E5F5F4F2417350748F04E0F8D
:1027D0005F1F50932B0340932A038193919302C070
:1027E000E0E0F0E0CF01DF91CF9108950F931F93C8
:1027F000CF93DF93009709F48CC0FC0132971382CA
:10280000128200912C0310912D030115110581F402
:1028100020813181820F931F20912A0330912B0355
:102820002817390779F5F0932B03E0932A0371C039
:10283000D80140E050E0AE17BF0750F412962D913A
:102840003C911397AD012115310509F1D901F3CF61
:102850009D01DA013383228360817181860F971F86
:102860008217930769F4EC0128813981260F371FFD
:102870002E5F3F4F318320838A819B8193838283A4
:10288000452B29F4F0932D03E0932C0342C01396BB
:10289000FC93EE931297ED01499159919E01240FFB
:1028A000351FE217F30771F480819181840F951F22
:1028B000029611969C938E938281938113969C939A
:1028C0008E931297E0E0F0E0D80112968D919C91E2
:1028D0001397009719F0F8018C01F6CF8D919C9118
:1028E00098012E5F3F4F820F931F20912A03309152
:1028F0002B032817390769F4309729F410922D0318
:1029000010922C0302C01382128210932B030093A7
:102910002A03DF91CF911F910F910895A0E0B0E0BD
:10292000E4E9F4E10C941618EC01009721F4CB01D2
:102930000E946113B8C0FC01E60FF71F9C012250F2
:102940003109E217F30708F4ACC0D9010D911C91CD
:10295000119706171707B0F00530110508F49FC04E
:10296000C80104978617970708F499C00250110907
:10297000061B170B019311936D937C93CF010E945B
:10298000F6138DC05B01A01AB10A4C01800E911E96
:10299000A0912C03B0912D0340E050E0E12CF12CEC
:1029A000109709F44AC0A815B905D1F56D907C902F
:1029B0001197630182E0C80ED11CCA14DB0480F1B8
:1029C000A3014A195B096A0182E0C80ED11C129664
:1029D000BC9012971396AC91B5E0CB16D10440F0A1
:1029E000B282A38351834083D9016D937C930AC043
:1029F0000E5F1F4FC301800F911FF90191838083E8
:102A0000EB2DFA2FE114F10431F0D7011396FC936A
:102A1000EE93129744C0F0932D03E0932C033FC034
:102A20008D919C9111974817590708F4AC017D01CD
:102A300012960D90BC91A02DB3CF80912A03909156
:102A40002B0388159905E1F446175707C8F48091C0
:102A5000000190910101009741F48DB79EB740911C
:102A6000040150910501841B950BE817F907C8F480
:102A7000F0932B03E0932A03F901718360830FC065
:102A8000CB010E9461137C01009759F0A801BE019F
:102A90000E945815CE010E94F613C70104C0CE0152
:102AA00002C080E090E0CDB7DEB7EEE00C943218C3
:102AB000FB01DC0102C001900D9241505040D8F75B
:102AC0000895FB01DC018D91019080190110D9F36B
:102AD000990B0895FB01DC0101900D920020E1F7B4
:102AE0000895AEE0B0E0E7E7F5E10C9420180D8919
:102AF0001E8986E08C831A8309838FEF9FE79E836C
:102B00008D83AE01475E5F4F6F89788DCE01019650
:102B10000E9494152F813885F801E20FF31F10826F
:102B20002E96E4E00C943C18ACE0B0E0EAE9F5E164
:102B30000C9412187C016B018A01FC011782168229
:102B4000838181FFBDC1CE0101964C01F7019381C4
:102B5000F60193FD859193FF81916F01882309F41C
:102B6000ABC1853239F493FD859193FF81916F015B
:102B7000853229F4B70190E00E947C17E7CF512CF1
:102B8000312C20E02032A0F48B3269F030F4803216
:102B900059F0833269F420612CC08D3239F08033D2
:102BA00039F4216026C02260246023C0286021C03F
:102BB00027FD27C030ED380F3A3078F426FF06C0E5
:102BC000FAE05F9E300D1124532E13C08AE0389E28
:102BD000300D1124332E20620CC08E3221F426FDDC
:102BE0006BC1206406C08C3611F4206802C08836A0
:102BF00041F4F60193FD859193FF81916F0181115D
:102C0000C1CF982F9F7D9554933028F40C5F1F4FB0
:102C1000FFE3F9830DC0833631F0833771F08335DC
:102C200009F05BC022C0F801808189830E5F1F4FCD
:102C300044244394512C540115C03801F2E06F0E26
:102C4000711CF801A080B18026FF03C0652D70E0E3
:102C500002C06FEF7FEFC5012C870E9471172C0116
:102C600083012C852F77222E17C03801F2E06F0EDA
:102C7000711CF801A080B18026FF03C0652D70E0B3
:102C800002C06FEF7FEFC5012C870E9466172C01F1
:102C90002C852068222E830123FC1BC0832D90E00D
:102CA00048165906B0F4B70180E290E00E947C1704
:102CB0003A94F4CFF50127FC859127FE81915F01BD
:102CC000B70190E00E947C1731103A94F1E04F1A5E
:102CD00051084114510471F7E5C0843611F089366A
:102CE00039F5F80127FF07C06081718182819381E6
:102CF0000C5F1F4F08C060817181072E000C880B8C
:102D0000990B0E5F1F4F2F76722E97FF09C090957B
:102D10008095709561957F4F8F4F9F4F2068722EE1
:102D20002AE030E0A4010E94B417A82EA81844C0DD
:102D3000853729F42F7EB22E2AE030E025C0F22F0D
:102D4000F97FBF2E8F36C1F018F4883579F0B4C002
:102D5000803719F0883721F0AFC02F2F2061B22EB5
:102D6000B4FE0DC08B2D8460B82E09C024FF0AC0AC
:102D70009F2F9660B92E06C028E030E005C020E104
:102D800030E002C020E132E0F801B7FE07C0608108
:102D90007181828193810C5F1F4F06C060817181B8
:102DA00080E090E00E5F1F4FA4010E94B417A82E90
:102DB000A818FB2DFF777F2E76FE0BC0372D3E7FA8
:102DC000A51450F474FE0AC072FC08C0372D3E7E74
:102DD00005C0BA2C372D03C0BA2C01C0B52C34FF66
:102DE0000DC0FE01EA0DF11D8081803311F4397EA2
:102DF00009C032FF06C0B394B39404C0832F867811
:102E000009F0B39433FD13C030FF06C05A2CB3143D
:102E100018F4530C5B18B32CB31468F4B70180E2B8
:102E200090E03C870E947C17B3943C85F5CFB314A7
:102E300010F43B1801C0312C34FF12C0B70180E3FD
:102E400090E03C870E947C173C8532FF17C031FD23
:102E500003C088E790E002C088E590E0B7010CC0AD
:102E6000832F867859F031FF02C08BE201C080E2E7
:102E700037FD8DE2B70190E00E947C17A51438F46D
:102E8000B70180E390E00E947C175A94F7CFAA9490
:102E9000F401EA0DF11D8081B70190E00E947C17DA
:102EA000A110F5CF332009F451CEB70180E290E0B4
:102EB0000E947C173A94F6CFF7018681978102C071
:102EC0008FEF9FEF2C96E2E10C942E18FC010590F9
:102ED000615070400110D8F7809590958E0F9F1F1C
:102EE0000895FC016150704001900110D8F7809561
:102EF00090958E0F9F1F08950F931F93CF93DF938D
:102F0000FB01238121FD03C08FEF9FEF28C022FF2B
:102F100016C046815781248135814217530744F4F6
:102F2000A081B1819D012F5F3F4F318320838C931E
:102F3000268137812F5F3F4F3783268310C0EB01F7
:102F4000092F182F0084F185E02D0995892BE1F6D2
:102F50008E819F8101969F838E83812F902FDF9199
:102F6000CF911F910F910895FA01AA27283051F1AE
:102F7000203181F1E8946F936E7F6E5F7F4F8F4FAA
:102F80009F4FAF4FB1E03ED0B4E03CD0670F781F09
:102F9000891F9A1FA11D680F791F8A1F911DA11DEE
:102FA0006A0F711D811D911DA11D20D009F4689427
:102FB0003F912AE0269F11243019305D3193DEF6CF
:102FC000CF010895462F4770405D4193B3E00FD085
:102FD000C9F7F6CF462F4F70405D4A3318F0495D70
:102FE00031FD4052419302D0A9F7EACFB4E0A69553
:102FF0009795879577956795BA95C9F70097610575
:10300000710508959B01AC010A2E069457954795CA
:1030100037952795BA95C9F7620F731F841F951FBF
:10302000A01D08952F923F924F925F926F927F92D0
:103030008F929F92AF92BF92CF92DF92EF92FF92C8
:103040000F931F93CF93DF93CDB7DEB7CA1BDB0B74
:103050000FB6F894DEBF0FBECDBF09942A88398819
:1030600048885F846E847D848C849B84AA84B98420
:10307000C884DF80EE80FD800C811B81AA81B9812C
:10308000CE0FD11D0FB6F894DEBF0FBECDBFED0140
:10309000089511E0C2E0D1E004C0FE010E945B137C
:0C30A0002196C330D107C9F7F894FFCF88
:1030AC0000002E03800000AABBCCDE003C2F74690C
:1030BC006D653E3B69663D74696D653B3C2F6C6983
:1030CC006768743E3B69663D6C696768743B3C2F6E
:1030DC00696E666F3E3B69663D696E666F0030785F
:1030EC002530386C780031303A33303A3231004187
:1030FC0070722020322032303230004F62697220E0
:10310C00436F617020736572766572205B25732D39
:10311C0025735D002E77656C6C2D6B6E6F776E2F43
:10312C00636F7265006C696768740074696D650023
:10313C00000000006C050F06630582059F05C505A0
:10314C00A4056A05CF056B05B805CD0665064805CF
:10315C004F055F05A2050000000069072F00000065
:10316C000000460F8110C70EE10ED30E240F0D0A7E
:10317C00006E616E00696E66006F7666002E000050
:00000001FF
