:100000000C9495000C94BD000C94BD000C94BD00A4
:100010000C94BD000C94BD000C94BD000C94BD006C
:100020000C94BD000C94BD000C94BD000C94BD005C
:100030000C94BD000C94BD000C94BD000C94BD004C
:100040000C942F030C94BD000C9480050C94B20505
:100050000C94BD000C94BD000C94BD000C94BD002C
:100060000C94BD000C94BD006661696C65642E0043
:1000700029002C20006F6B2E20283078004F7468E8
:100080006572206E6F646520616464726573733A93
:10009000200054686973206E6F6465206164647227
:1000A0006573733A20005D002C20002C20004F6205
:1000B0006972524632344E6574776F726B205458B1
:1000C00020696E69742E2E2E205B0000000008004F
:1000D000020100000304070000000000000000010E
:1000E00002040810204080010204081020010204CC
:1000F000081020040404040404040402020202029E
:100100000203030303030300000000250028002B63
:100110000000000000240027002A0000C8018C0213
:100120009702A202B0022403E20511241FBECFEF02
:10013000D8E0DEBFCDBF11E0A0E0B1E0EEE7FEE029
:1001400002C005900D92A23DB107D9F722E0A2EDC1
:10015000B1E001C01D92AC3AB207E1F710E0C5E989
:10016000D0E004C02197FE010E943707CE38D107A6
:10017000C9F70E9406070C943D070C94000026E086
:1001800040E052EC61E070E08FE092E00E941B05DD
:100190006EEA70E08FE092E00E944F0660E071E04E
:1001A0008FE092E00E9473066BEA70E08FE092E0CD
:1001B0000E944F066CE871E08FE092E00E947306A7
:1001C00068EA70E08FE092E00E944F0668E971E013
:1001D0008FE092E00E94730666EA70E08FE092E0A2
:1001E0000E94800662E970E08FE092E00E944F0674
:1001F0004AE050E061E070E08FE092E00E94EF069C
:100200006DE770E08FE092E00E944F064AE050E018
:1002100060E070E08FE092E00E94EF060E945602DC
:100220008BED91E00E94D70141E050E06AE58AED54
:1002300091E00C94DF01CF92DF92EF92FF92CF9387
:10024000DF93CDB7DEB72E970FB6F894DEBF0FBEA3
:10025000CDBF8AED91E00E94F0010E94BB02C090E8
:10026000D601D090D701E090D801F090D9019B0140
:10027000AC012C193D094E095F0969017A0130ED85
:10028000C31637E0D306E104F10408F474C06093A8
:10029000D6017093D7018093D8019093D90161EA78
:1002A00071E08FE092E00E9473060E9479036B0177
:1002B0007C0169837A838B839C838091D2019091A6
:1002C000D301A091D401B091D5018D839E83AF83DA
:1002D000B8871C861B8628E030E0AE014F5F5F4F79
:1002E000BE01675F7F4F8AED91E00E94F201882393
:1002F000E1F165E770E08FE092E00E944F064091E7
:10030000D2015091D3016091D4017091D50120E1C7
:1003100030E08FE092E00E94DB0662E770E08FE061
:1003200092E00E944F062AE030E0B701A6018FE07C
:1003300092E00E94DB0660E770E08FE092E00E94AE
:1003400080068091D2019091D301A091D401B09107
:10035000D5010196A11DB11D8093D2019093D301C7
:10036000A093D401B093D50106C068E670E08FE099
:1003700092E00E9480062E960FB6F894DEBF0FBE64
:10038000CDBFDF91CF91FF90EF90DF90CF90089598
:1003900048E050E067E070E08BED91E00E94D6010C
:1003A0006BED71E08AED91E00C94DC010895089505
:1003B00095BF84BF63BF08951092DE01089515BEF6
:1003C00081E084BF63BF15BE82E084BF53BF15BE0A
:1003D00083E084BF43BF4093DC015093DD01089567
:1003E00080E00895AF92BF92CF92DF92EF92FF929A
:1003F0000F931F93CF93DF93CDB7DEB728970FB638
:10040000F894DEBF0FBECDBF6B0159018091DC01B6
:100410009091DD01FB0191838083C901069695834C
:10042000848386E0DE01119601900D928A95E1F7B2
:10043000CE0101967C0105E010E0F70161917F019A
:10044000C8014F8358870E94D8010F5F1F4F4F810B
:1004500058850B30110589F77A01AE0CBF1CEA14E0
:10046000FB0449F0F70161917F01C8010E94D801A6
:100470000F5F1F4FF4CFF601848115BE94E094BF47
:1004800083BF15BE14BE81E083BF28960FB6F894D3
:10049000DEBF0FBECDBFDF91CF911F910F91FF90B7
:1004A000EF90DF90CF90BF90AF900895CF93CFB7EC
:1004B000F8948091DF01811127C0EDEFF0E0849185
:1004C000E9EEF0E09491E82FF0E0EE0FFF1FEF5E11
:1004D000FE4FA591B491EC91E92321F461E08AE00B
:1004E0000E94250461E08AE00E94E9038CB58061E6
:1004F0008CBD8CB580648CBD61E08DE00E94E90309
:1005000061E08BE00E94E9038091DF018F5F8093BF
:10051000DF01CFBFCF9108950F9300E020E040E0CE
:1005200060E080EE91E00E9418030F9108950F9310
:1005300000E020E040E060E086EE91E00E941803D9
:100540000F9108950F9300E020E040E060E084EF19
:1005500091E00E9418038CEE91E00F910C940E0331
:100560000F9300E020E040E060E08AEF91E00E941D
:1005700018030F91089546B767B728B739B7862F84
:1005800090E0A0E0B0E0DC0199278827B42B832B12
:10059000BC01CD01722B08958F929F92AF92BF92B2
:1005A000CF92DF92EF92FF920F931F93CF93DF933F
:1005B0007C018B016C0182E0C80ED11C4701E5E093
:1005C0008E0E911CC0E0D0E0F60161916F014AE00F
:1005D00050E0C8010E94E8065C016EE2C8010E947A
:1005E00075068A0D9B1DC80FD91FC814D90461F761
:1005F0004AE050E0F7016581C8010E94E8068C0FCF
:100600009D1FDF91CF911F910F91FF90EF90DF9091
:10061000CF90BF90AF909F908F90089520EB31E0E6
:10062000FC01318320831282138214821582089583
:100630000F93FC0180EB91E091838083628343837D
:10064000248305830F910895E0E0F2E080EB91E0D0
:1006500091838083128213821482158208951F92DF
:100660000F920FB60F9211242F933F938F939F9366
:10067000AF93BF938091070290910802A091090265
:10068000B0910A023091060223E0230F2D3720F4A7
:100690000196A11DB11D05C026E8230F0296A11DDC
:1006A000B11D209306028093070290930802A09345
:1006B0000902B0930A0280910B0290910C02A09162
:1006C0000D02B0910E020196A11DB11D80930B0287
:1006D00090930C02A0930D02B0930E02BF91AF91C4
:1006E0009F918F913F912F910F900FBE0F901F9070
:1006F00018952FB7F89460910702709108028091C5
:10070000090290910A022FBF0895789484B58260FF
:1007100084BD84B5816084BD85B5826085BD85B5A5
:10072000816085BDEEE6F0E0808181608083E1E854
:10073000F0E010828081826080838081816080838C
:10074000E0E8F0E0808181608083E1EBF0E080818F
:1007500084608083E0EBF0E0808181608083EAE761
:10076000F0E08081846080838081826080838081EA
:10077000816080838081806880831092C1000895A9
:10078000833081F028F4813099F08230A1F008950F
:100790008730A9F08830B9F08430D1F4809180009E
:1007A0008F7D03C0809180008F77809380000895B3
:1007B00084B58F7702C084B58F7D84BD0895809104
:1007C000B0008F7703C08091B0008F7D8093B00020
:1007D0000895CF93DF9390E0FC01E152FF4F249105
:1007E000FC01ED50FF4F8491882361F190E0880F68
:1007F000991FFC01EF5EFE4FC591D491FC01E95FAA
:10080000FE4FA591B491611109C09FB7F8948881FA
:10081000209582238883EC912E230BC0623061F4F3
:100820009FB7F8943881822F809583238883EC9139
:100830002E2B2C939FBF06C08FB7F894E8812E2BE8
:1008400028838FBFDF91CF9108951F93CF93DF93BC
:10085000282F30E0F901E553FF4F8491F901E1526F
:10086000FF4FD491F901ED50FF4FC491CC23C9F053
:10087000162F81110E94C003EC2FF0E0EE0FFF1F36
:10088000E95FFE4FA591B4918FB7F894111105C09F
:100890009C91ED2FE095E92302C0EC91ED2BEC93B8
:1008A0008FBFDF91CF911F910895FC01918D228D13
:1008B000892F90E0805C9F4F821B91098F7399274D
:1008C0000895FC01918D828D981731F0828DE80F8B
:1008D000F11D858D90E008958FEF9FEF0895FC0145
:1008E000918D828D981761F0828DDF01A80FB11D67
:1008F0005D968C91928D9F5F9F73928F90E008958B
:100900008FEF9FEF089588ED95E0892B49F080E007
:1009100090E0892B29F00E94D80581110C940000E9
:100920000895FC01848DDF01A80FB11DA35ABF4FAC
:100930002C91848D90E001968F739927848FA689DE
:10094000B7892C93A089B1898C9180648C93938D05
:10095000848D981306C00288F389E02D80818F7DF5
:1009600080830895CF93DF93EC01888D8823C9F0AD
:10097000EA89FB89808185FD05C0A889B9898C91A8
:1009800086FD0FC00FB607FCF5CF808185FFF2CF43
:10099000A889B9898C9185FFEDCFCE010E94910481
:1009A000E7CFDF91CF910895EF92FF920F931F93BE
:1009B000CF93DF93EC0181E0888F9B8D8C8D981312
:1009C00005C0E889F989808185FD24C0F62E0B8D4C
:1009D00010E00F5F1F4F0F731127E02E8C8DE81270
:1009E0000CC00FB607FCFACFE889F989808185FF32
:1009F000F5CFCE010E949104F1CF8B8DFE01E80F5F
:100A0000F11DE35AFF4FF0820B8FEA89FB89808149
:100A1000806207C0EE89FF896083E889F989808157
:100A20008064808381E090E0DF91CF911F910F91EE
:100A3000FF90EF900895CF92DF92EF92FF921F9375
:100A4000CF93DF93EC016A017B01122FE889F989CA
:100A500082E080834115514E61057105B1F060E07F
:100A600079E08DE390E0A70196010E941507DA0175
:100A7000C9010197A109B109B695A79597958795E1
:100A8000AC01411580E15807A8F0E889F989108286
:100A900060E874E88EE190E0A70196010E941507D6
:100AA000BA01A9014150510961097109769567950B
:100AB00057954795EC85FD855083EE85FF854083EE
:100AC000188EEC89FD891083EA89FB898081806119
:100AD0008083EA89FB89808188608083EA89FB8939
:100AE000808180688083EA89FB8980818F7D808313
:100AF000DF91CF911F91FF90EF90DF90CF900895FD
:100B00001F920F920FB60F9211242F938F939F93E2
:100B1000EF93FF93E0911F02F09120028081E0911A
:100B20002502F091260282FD12C090818091280258
:100B30008F5F8F7320912902821751F0E091280274
:100B4000F0E0E15FFD4F958F8093280201C0808126
:100B5000FF91EF919F918F912F910F900FBE0F906A
:100B60001F9018951F920F920FB60F9211242F937A
:100B70003F934F935F936F937F938F939F93AF9325
:100B8000BF93EF93FF938FE092E00E949104FF9157
:100B9000EF91BF91AF919F918F917F916F915F91F5
:100BA0004F913F912F910F900FBE0F901F9018956E
:100BB0008FE092E00E94550421E0892B09F420E0A7
:100BC000822F0895EFE0F2E01382128288EE93E024
:100BD000A0E0B0E084839583A683B78386EB91E0A1
:100BE0009183808385EC90E09587848784EC90E006
:100BF0009787868780EC90E0918B808B81EC90E0EA
:100C0000938B828B82EC90E0958B848B86EC90E0CA
:100C1000978B868B118E128E138E148E0895CF9221
:100C2000DF92EF92FF920F931F93CF93DF936C01AC
:100C30007A018B01C0E0D0E0CE15DF0589F0D80144
:100C40006D918D01D601ED91FC910190F081E02D27
:100C5000C6010995892B11F47E0102C02196ECCFC3
:100C6000C701DF91CF911F910F91FF90EF90DF901F
:100C7000CF9008956115710579F0FB010190002076
:100C8000E9F73197AF01461B570BDC01ED91FC9161
:100C90000280F381E02D099480E090E00895EF92C6
:100CA000FF920F931F93CF93DF938C017B01C0E0E2
:100CB000D0E0F701EC0FFD1F6491662361F0D801CD
:100CC000ED91FC910190F081E02DC8010995892BEF
:100CD00011F02196EECFCE01DF91CF911F910F91B0
:100CE000FF90EF9008950C943A06DC01ED91FC9191
:100CF0000190F081E02D099462EC71E00C943A06C9
:100D00000F931F93CF93DF93EC010E944F068C014A
:100D1000CE010E947C06800F911FDF91CF911F9121
:100D20000F9108954F925F926F927F92EF92FF9290
:100D30000F931F93CF93DF93CDB7DEB7A1970FB675
:100D4000F894DEBF0FBECDBF7C01FA01CB0119A222
:100D5000223008F42AE08E010F5D1F4F422E512CE5
:100D6000612C712CBF01A30192010E941507F901AA
:100D7000CA01015011096A3014F4605D01C0695C58
:100D8000D8016C93232B242B252B61F7B801C701C5
:100D90000E943A06A1960FB6F894DEBF0FBECDBFF3
:100DA000DF91CF911F910F91FF90EF907F906F9007
:100DB0005F904F9008952115310541F4DC01ED91CC
:100DC000FC910190F081E02D642F09940C9492061F
:100DD0009A01462F50E060E070E00C94DB060F9320
:100DE0001F93CF93DF93EC019A01AB0160E070E0B9
:100DF0000E94DB068C01CE010E947C06800F911FB1
:100E0000DF91CF911F910F91089508950E9485035E
:100E10000E9405070E94BF00C3E8D4E00E941B01A6
:100E20002097E1F30E948304F9CFA1E21A2EAA1BB6
:100E3000BB1BFD010DC0AA1FBB1FEE1FFF1FA2178A
:100E4000B307E407F50720F0A21BB30BE40BF50B87
:100E5000661F771F881F991F1A9469F76095709510
:100E6000809590959B01AC01BD01CF010895EE0FD7
:0E0E7000FF1F0590F491E02D0994F894FFCF38
:100E7E00433A5C446F63756D656E747320616E6486
:100E8E002053657474696E67735C61707275737AE2
:100E9E006B6F5C4D6F6A6520646F6B756D656E74FC
:100EAE00795C41726475696E6F5C4F62697252460D
:100EBE0032344E6574776F726B5F68656C6C6F77EA
:100ECE006F726C645F74785F32303230303530352B
:100EDE005C4F626972524632344E6574776F726B34
:100EEE005F68656C6C6F776F726C645F74785F327D
:100EFE00303230303530352E696E6F004D617920CD
:100F0E00203820323032300030373A35363A3532EA
:100F1E000053656E64696E672E2E2E000000000071
:100F2E00CC0200000000D4040F0655046F046104C7
:100F3E00B2040D0A006E616E00696E66006F766611
:020F4E000000A1
:00000001FF
