:100000000C9485000C94AD000C94AD000C94AD00E4
:100010000C94AD000C94AD000C94AD000C94AD00AC
:100020000C94AD000C94AD000C94AD000C94AD009C
:100030000C94AD000C94AD000C94AD000C94AD008C
:100040000C9417060C94AD000C9467040C9499045E
:100050000C94AD000C94AD000C94AD000C94AD006C
:100060000C94AD000C94AD004F74686572206E6FF7
:10007000646520616464726573733A200054686932
:1000800073206E6F646520616464726573733A20D7
:10009000005D002C20002C20004F62697252463215
:1000A000344E6574776F726B20525820696E697494
:1000B0002E2E2E205B00000000080002010000032D
:1000C00004070000000000000000010204081020E6
:1000D00040800102040810200102040810200404DA
:1000E00004040404040402020202020203030303E0
:1000F000030300000000250028002B000000000082
:10010000240027002A006A01C90411241FBECFEF72
:10011000D8E0DEBFCDBF11E0A0E0B1E0ECE8FDE04B
:1001200002C005900D92AE3EB107D9F722E0AEEEC7
:10013000B1E001C01D92AA39B207E1F710E0C5E8AD
:10014000D0E004C02197FE010E94BE06C338D1074B
:10015000C9F70E9408060C94C4060C94000026E01F
:1001600040E052EC61E070E084EF91E00E94020414
:1001700069E970E084EF91E00E94360560E071E08B
:1001800084EF91E00E945A0566E970E084EF91E007
:100190000E9436056CE871E084EF91E00E945A05F8
:1001A00063E970E084EF91E00E94360568E971E050
:1001B00084EF91E00E945A0561E970E084EF91E0DC
:1001C0000E9460056DE770E084EF91E00E943605C3
:1001D0004AE050E060E070E084EF91E00E94DF05CB
:1001E00068E670E084EF91E00E9436054AE050E056
:1001F00061E070E084EF91E00E94DF050E947102EF
:100200008FEE91E00E94790140E050E06AE58EEEC9
:1002100091E00C948101CF93DF93CDB7DEB72E9799
:100220000FB6F894DEBF0FBECDBF8EEE91E00E94F8
:1002300092018EEE91E00E94D001882309F441C022
:1002400028E030E0AE014F5F5F4FBE01675F7F4F38
:100250008EEE91E00E94E801882309F161EA71E0E5
:1002600084EF91E00E945A054D815E816F8178850F
:1002700020E130E084EF91E00E94BB0565EB71E086
:1002800084EF91E00E945A0549815A816B817C81FB
:100290002AE030E084EF91E00E94F505CACF6AEBD6
:1002A00071E084EF91E00E945A058EEE91E00E9489
:1002B000E50140E150E0682F84EF91E00E94C8051D
:1002C000B8CF2E960FB6F894DEBF0FBECDBFDF912C
:1002D000CF91089548E050E067E070E08FEE91E044
:1002E0000E9478016FEE71E08EEE91E00C947E0139
:1002F0000895089595BF84BF83B708951092F201C1
:10030000089515BE81E084BF63BF15BE82E084BF3F
:1003100053BF15BE83E084BF43BF4093F0015093A9
:10032000F101089580E0089515BE85E884BF83B784
:100330000895DF92EF92FF920F931F93CF93DF9375
:1003400000D000D000D0CDB7DEB70E949401873036
:10035000B8F08E010F5F1F4F86E8E82EF12C96E073
:10036000D92ED00EC7010E947A01F80181938F0126
:10037000FFEFEF1AFF0AD012F5CF8B819C8102C0EC
:100380008FEF9FEF26960FB6F894DEBF0FBECDBF5E
:10039000DF91CF911F910F91FF90EF90DF90089523
:1003A0000E9499019C012F3F8FEF380721F481E0D3
:1003B0008093F20108C081E04091F0015091F10179
:1003C0002417350709F080E008958091F20108951F
:1003D0004F925F926F927F928F929F92AF92BF9255
:1003E000CF92DF92EF92FF920F931F93CF93DF9301
:1003F00000D000D000D0CDB7DEB73B01042F552E82
:1004000049010E949401182F873010F482E00EC039
:100410000E9499012091F0013091F1018217930718
:1004200051F015BE85E884BF13BE84E08093F201CD
:1004300080E090E03FC0CE0101967C016C0196E81F
:10044000A92EB12C26E0422E4E0CC5010E947A0145
:10045000F60181936F01FFEFAF1ABF0A4C10F5CF81
:1004600086E0F701D30101900D928A95E1F71650CD
:10047000812F90E08815990508F0182DB02EE02EF8
:10048000F52C8CE8C82ED12C8E2D8B19811750F4A9
:10049000C6010E947A01F70181937F01FFEFCF1A15
:1004A000DF0AF2CF15BE85E884BF13BE1092F201B9
:1004B000812F90E026960FB6F894DEBF0FBECDBF19
:1004C000DF91CF911F910F91FF90EF90DF90CF9030
:1004D000BF90AF909F908F907F906F905F904F9064
:1004E0000895CF93CFB7F8948091F301811127C07D
:1004F000E8EEF0E08491E4EDF0E09491E82FF0E094
:10050000EE0FFF1FE450FF4FA591B491EC91E9234A
:1005100021F461E08AE00E940C0361E08AE00E941D
:10052000D0028CB580618CBD8CB580648CBD61E0DF
:100530008DE00E94D00261E08BE00E94D0028091A9
:10054000F3018F5F8093F301CFBFCF910895833084
:1005500081F028F4813099F08230A1F0089587303D
:10056000A9F08830B9F08430D1F4809180008F7D7B
:1005700003C0809180008F7780938000089584B5B8
:100580008F7702C084B58F7D84BD08958091B000BF
:100590008F7703C08091B0008F7D8093B000089565
:1005A000CF93DF9390E0FC01E653FF4F2491FC01D1
:1005B000E252FF4F8491882361F190E0880F991FE8
:1005C000FC01E450FF4FC591D491FC01EE50FF4F68
:1005D000A591B491611109C09FB7F89488812095C5
:1005E00082238883EC912E230BC0623061F49FB785
:1005F000F8943881822F809583238883EC912E2B69
:100600002C939FBF06C08FB7F894E8812E2B2883C8
:100610008FBFDF91CF9108951F93CF93DF93282F42
:1006200030E0F901EA54FF4F8491F901E653FF4F9E
:10063000D491F901E252FF4FC491CC23C9F0162F97
:1006400081110E94A702EC2FF0E0EE0FFF1FEE5089
:10065000FF4FA591B4918FB7F894111105C09C91EB
:10066000ED2FE095E92302C0EC91ED2BEC938FBFC9
:10067000DF91CF911F910895FC01918D228D892FDB
:1006800090E0805C9F4F821B91098F73992708959A
:10069000FC01918D828D981731F0828DE80FF11D4C
:1006A000858D90E008958FEF9FEF0895FC01918D67
:1006B000828D981761F0828DDF01A80FB11D5D96C4
:1006C0008C91928D9F5F9F73928F90E008958FEF32
:1006D0009FEF08958FEB94E0892B49F080E090E044
:1006E000892B29F00E94BF0481110C940000089509
:1006F000FC01848DDF01A80FB11DA35ABF4F2C91BF
:10070000848D90E001968F739927848FA689B7898D
:100710002C93A089B1898C9180648C93938D848D66
:10072000981306C00288F389E02D80818F7D808335
:100730000895CF93DF93EC01888D8823C9F0EA896F
:10074000FB89808185FD05C0A889B9898C9186FDCA
:100750000FC00FB607FCF5CF808185FFF2CFA889C7
:10076000B9898C9185FFEDCFCE010E947803E7CF48
:10077000DF91CF910895EF92FF920F931F93CF9344
:10078000DF93EC0181E0888F9B8D8C8D981305C0E1
:10079000E889F989808185FD24C0F62E0B8D10E053
:1007A0000F5F1F4F0F731127E02E8C8DE8120CC0C6
:1007B0000FB607FCFACFE889F989808185FFF5CF6C
:1007C000CE010E947803F1CF8B8DFE01E80FF11D61
:1007D000E35AFF4FF0820B8FEA89FB8980818062A8
:1007E00007C0EE89FF896083E889F9898081806488
:1007F000808381E090E0DF91CF911F910F91FF9076
:10080000EF900895CF92DF92EF92FF921F93CF93D4
:10081000DF93EC016A017B01122FE889F98982E0FC
:1008200080834115514E61057105B1F060E079E0BA
:100830008DE390E0A70196010E949C06DA01C901B0
:100840000197A109B109B695A79597958795AC0130
:10085000411580E15807A8F0E889F989108260E81D
:1008600074E88EE190E0A70196010E949C06BA010F
:10087000A90141505109610971097695679557950C
:100880004795EC85FD855083EE85FF854083188E66
:10089000EC89FD891083EA89FB89808180618083EE
:1008A000EA89FB89808188608083EA89FB8980816D
:1008B00080688083EA89FB8980818F7D8083DF91D6
:1008C000CF911F91FF90EF90DF90CF9008951F92EE
:1008D0000F920FB60F9211242F938F939F93EF9344
:1008E000FF93E0910402F09105028081E0910A02F9
:1008F000F0910B0282FD12C0908180910D028F5FFA
:100900008F7320910E02821751F0E0910D02F0E0FA
:10091000EC50FE4F958F80930D0201C08081FF91B6
:10092000EF919F918F912F910F900FBE0F901F907D
:1009300018951F920F920FB60F9211242F933F9389
:100940004F935F936F937F938F939F93AF93BF93D7
:10095000EF93FF9384EF91E00E947803FF91EF9172
:10096000BF91AF919F918F917F916F915F914F91C7
:100970003F912F910F900FBE0F901F90189584EF0D
:1009800091E00E943C0321E0892B09F420E0822FB2
:100990000895E4EFF1E01382128288EE93E0A0E084
:1009A000B0E084839583A683B78380ED91E0918343
:1009B000808385EC90E09587848784EC90E097872E
:1009C000868780EC90E0918B808B81EC90E0938B1C
:1009D000828B82EC90E0958B848B86EC90E0978BF9
:1009E000868B118E128E138E148E0895CF92DF9205
:1009F000EF92FF920F931F93CF93DF936C017A01D5
:100A00008B01C0E0D0E0CE15DF0589F0D8016D91F3
:100A10008D01D601ED91FC910190F081E02DC60190
:100A20000995892B11F47E0102C02196ECCFC701F4
:100A3000DF91CF911F910F91FF90EF90DF90CF90BA
:100A400008956115710579F0FB0101900020E9F727
:100A50003197AF01461B570BDC01ED91FC910280F1
:100A6000F381E02D099480E090E00895EF92FF92E9
:100A70000F931F93CF93DF938C017B01C0E0D0E0F5
:100A8000F701EC0FFD1F6491662361F0D801ED9131
:100A9000FC910190F081E02DC8010995892B11F09E
:100AA0002196EECFCE01DF91CF911F910F91FF9054
:100AB000EF9008950C9421056CED71E00C942105E4
:100AC0000F931F93CF93DF93EC010E9436058C01A7
:100AD000CE010E945C05800F911FDF91CF911F9185
:100AE0000F9108954F925F926F927F92EF92FF92D3
:100AF0000F931F93CF93DF93CDB7DEB7A1970FB6B8
:100B0000F894DEBF0FBECDBF7C01FA01CB0119A264
:100B1000223008F42AE08E010F5D1F4F422E512C27
:100B2000612C712CBF01A30192010E949C06F90166
:100B3000CA01015011096A3014F4605D01C0695C9A
:100B4000D8016C93232B242B252B61F7B801C70107
:100B50000E942105A1960FB6F894DEBF0FBECDBF4F
:100B6000DF91CF911F910F91FF90EF907F906F9049
:100B70005F904F9008952115310541F4DC01ED910E
:100B8000FC910190F081E02D642F09940C94720582
:100B90000F931F93CF93DF93EC019A01462F50E000
:100BA00060E070E00E94BB058C01CE010E945C05F4
:100BB000800F911FDF91CF911F910F9108950F9397
:100BC0001F93CF93DF93EC019A01AB0160E070E0DB
:100BD0000E94BB058C01CE010E945C05800F911F15
:100BE000DF91CF911F910F9108950F931F93CF9392
:100BF000DF93EC010E94BB058C01CE010E945C05D5
:100C0000800F911FDF91CF911F910F91089508954B
:100C10000E9461060E9407060E94AF00CAE6D3E068
:100C20000E940B012097E1F30E946A03F9CF1F9203
:100C30000F920FB60F9211242F933F938F939F9390
:100C4000AF93BF938091920290919302A0919402EE
:100C5000B09195023091910223E0230F2D3720F4BB
:100C60000196A11DB11D05C026E8230F0296A11D06
:100C7000B11D209391028093920290939302A093CE
:100C80009402B09395028091960290919702A09160
:100C90009802B09199020196A11DB11D8093960210
:100CA00090939702A0939802B0939902BF91AF914D
:100CB0009F918F913F912F910F900FBE0F901F909A
:100CC0001895789484B5826084BD84B5816084BDB4
:100CD00085B5826085BD85B5816085BDEEE6F0E0B5
:100CE000808181608083E1E8F0E010828081826011
:100CF0008083808181608083E0E8F0E08081816092
:100D00008083E1EBF0E0808184608083E0EBF0E0C1
:100D1000808181608083EAE7F0E080818460808365
:100D2000808182608083808181608083808180680F
:100D300080831092C1000895A1E21A2EAA1BBB1B4A
:100D4000FD010DC0AA1FBB1FEE1FFF1FA217B30797
:100D5000E407F50720F0A21BB30BE40BF50B661FAD
:100D6000771F881F991F1A9469F760957095809571
:100D700090959B01AC01BD01CF010895EE0FFF1FBF
:0C0D80000590F491E02D0994F894FFCF49
:100D8C00433A5C446F63756D656E747320616E6479
:100D9C002053657474696E67735C61707275737AD5
:100DAC006B6F5C4D6F6A6520646F6B756D656E74EF
:100DBC00795C41726475696E6F5C4F626972524600
:100DCC0032344E6574776F726B5F68656C6C6F77DD
:100DDC006F726C645F72785F323032303035303520
:100DEC005C4F626972524632344E6574776F726B27
:100DFC005F68656C6C6F776F726C645F72785F3272
:100E0C00303230303530352E696E6F004D617920BF
:100E1C00203820323032300030373A35353A3234DF
:100E2C00005265636569766564207061636B6574F7
:100E3C002023307800206174200052656369657648
:100E4C00696E67206572726F723A200000000000B4
:100E5C00BB03F6043C035603480399030D0A006ECA
:0E0E6C00616E00696E66006F7666002E0000F3
:00000001FF
