:100000000C9409010C9431010C9431010C943101D0
:100010000C9431010C9431010C9431010C94310198
:100020000C9431010C9431010C9431010C94310188
:100030000C9431010C9431010C9431010C94310178
:100040000C9472060C9431010C9422080C94540800
:100050000C9431010C9431010C9431010C94310158
:100060000C9431010C9431014E545020736572761A
:10007000657220726573706F6E7320697320696E8C
:10008000636F7272656374210030003A0030003A89
:1000900000546865205554432074696D6520697368
:1000A0002000556E69782074696D65203D200053ED
:1000B00065636F6E64732073696E6365204A616E59
:1000C00020312031393030203D20004E5450206DF9
:1000D000616368696E6520756E6B6E6F776E2073F5
:1000E000746174653A20004E5450207265717565D4
:1000F00073742073656E64696E672E2E2E005D002A
:1001000030383A33323A3333002C200041707220B9
:1001100020362032303230002C2000433A5C446FCD
:1001200063756D656E747320616E642053657474BD
:10013000696E67735C61707275737A6B6F5C4D6F1B
:100140006A6520646F6B756D656E74795C4172646D
:1001500075696E6F5C4F6269725564704E7470435E
:100160006C69656E745F32303230303430335C4FDE
:100170006269725564704E7470436C69656E745F29
:1001800032303230303430332E696E6F006F626936
:100190007220657468206E747020636C69656E747B
:1001A00020696E69742E2E2E205B004F62697245A5
:1001B000746865726E65745544503A3A6265676951
:1001C0006E5061636B657428636F6E73742063682F
:1001D0006172202A686F73742C2075696E743136D1
:1001E0005F7420706F7274293B206973206E6F7486
:1001F00020737570706F727465642120536F727212
:1002000079210000110265037003A803F305670656
:10021000840811241FBECFEFD8E0DEBFCDBF11E0B0
:10022000A0E0B1E0E2E8F4E102C005900D92A6354D
:10023000B107D9F722E0A6E5B1E001C01D92AF37C2
:10024000B207E1F711E0C9E0D1E004C02197FE0157
:100250000E94390AC230D107C9F70E94080A0C94DB
:100260003F0A0C9400004F925F926F927F928F92A0
:100270009F92AF92BF92CF92DF92EF92FF92CF9375
:10028000DF93603371050CF4B8C0EC0169A588A553
:100290000E94020A6C016BA58AA50E94020AE12C49
:1002A000F12C7601DD24CC24AC0160E070E0C42A9E
:1002B000D52AE62AF72A6FEA70E082EE91E00E94E2
:1002C000F1082AE030E0B701A60182EE91E00E9439
:1002D000F00962EA70E082EE91E00E94F10880E8A5
:1002E000C81A8EE7D80A8AEAE80A83E8F80A2AE0F8
:1002F00030E0B701A60182EE91E00E94F00961E9C9
:1003000070E082EE91E00E94F108C701B60120E89A
:1003100031E541E050E00E94170A30E1832E3EE0D3
:10032000932EA12CB12CA50194010E94170ABA01A9
:10033000A9012AE030E082EE91E00E94DC096FE83A
:1003400070E082EE91E00E94F108C701B601A501BC
:1003500094010E94170A2B013C0188E5481682E0AF
:1003600058066104710430F46DE870E082EE91E0AB
:100370000E94F1088CE3882E912CA12CB12CC30192
:10038000B201A50194010E94170ABA01A9012AE04D
:1003900030E082EE91E00E94DC096BE870E082EED2
:1003A00091E00E94F108C701B601A50194010E94E5
:1003B000170A6B017C018AE0C816D104E104F1043C
:1003C00030F469E870E082EE91E00E94F1082AE0E2
:1003D00030E0B701A60182EE91E0DF91CF91FF906E
:1003E000EF90DF90CF90BF90AF909F908F907F90D5
:1003F0006F905F904F900C94F00968E670E082EE89
:1004000091E0DF91CF91FF90EF90DF90CF90BF9080
:10041000AF909F908F907F906F905F904F900C94D3
:1004200020090F9300E020E040E060E08DEA91E0D9
:100430000E945B060CEF22E84DE162EC87EA91E056
:100440000E945B0688E591E00F910C94B105EF9254
:10045000FF920F931F9326E040E052EC61E070E0C2
:1004600082EE91E00E94BD076DE871E082EE91E0BE
:100470000E94F1086BE171E082EE91E00E94F108C8
:1004800068E171E082EE91E00E94F1086CE071E0B9
:1004900082EE91E00E94F10869E071E082EE91E065
:1004A0000E94F10860E071E082EE91E00E94F108A4
:1004B0006EEF70E082EE91E00E94200910EAE12EDA
:1004C0001FE0F12E00E010E020E63AEE40E050E0C0
:1004D00062E071E08FEB91E00E947B03609100018C
:1004E0007091010188E591E00E9411040E94FE05CF
:1004F00060937301709374018093750190937601FA
:1005000010925701109256011F910F91FF90EF909A
:100510000895CF93DF9300D000D000D0CDB7DEB7E1
:10052000E7E7F1E020E3DF011D922A95E9F723EEEA
:10053000208326E022832CEE238321E324873EE4DC
:100540003587268724E3278722E331E03A8329830E
:10055000FC0182819381A481B5818B839C83AD83CF
:10056000BE834BE750E0BE016F5F7F4F88E591E0AF
:100570000E943C0440E350E067E771E088E591E0C9
:100580000E947C0488E591E00E94250426960FB61F
:10059000F894DEBF0FBECDBFDF91CF910895CF920B
:1005A000DF92EF92FF92CF93DF9300D000D000D084
:1005B000CDB7DEB78091560190915701009709F0B1
:1005C00041C0C0907301D0907401E0907501F0902B
:1005D00076010E94FE05C616D706E806F90608F061
:1005E0005BC00E94FE05DC01CB01805A9541AF4FF4
:1005F000BF4F8093730190937401A0937501B093E2
:10060000760167EE70E082EE91E00E94200982E3BD
:1006100091E09A8389838091A9019091AA01A09188
:10062000AB01B091AC018B839C83AD83BE83CE01C3
:1006300001960E94890281E090E090935701809397
:1006400056012AC00197A1F488E591E00E943A057D
:10065000892B11F140E350E067E771E088E591E014
:100660000E94D204BC0187E791E00E94330110C0D0
:100670006BEC70E082EE91E00E94F108609156010F
:10068000709157014AE050E082EE91E00E94C50966
:1006900010925701109256018FEB91E00E94A50332
:1006A00026960FB6F894DEBF0FBECDBFDF91CF9177
:1006B000FF90EF90DF90CF9008959CBF8BBF6ABFF3
:1006C00008959CBF8BBF8AB708950F9300E020E088
:1006D00040E060E083EB91E00E945B060F9108959B
:1006E0000F9300E020E040E060E089EB91E00E94A1
:1006F0005B060F910895EF92FF920F93CF93DF93D4
:1007000000D000D000D0CDB7DEB77C0108E028E0F3
:1007100048E068E0CE0101960E945B068B819C81D7
:10072000AD81BE81F70182839383A483B58380E08A
:1007300090E026960FB6F894DEBF0FBECDBFDF91D6
:10074000CF910F91FF90EF90089580E090E0089591
:100750000F9300E020E040E060E087EC91E00E9431
:100760005B068FEB91E00F910C945106DC01ED914B
:10077000FC91008CF18DE02D099422E331E0FC0125
:1007800031832083FB014089518962897389FC018F
:1007900042835383648375830895FC01848995891A
:1007A0000895DC01ED91FC910688F789E02D09940C
:1007B0000895CF93DF931F92CDB7DEB76983DC0135
:1007C000ED91FC910280F381E02D41E050E0BE010B
:1007D0006F5F7F4F09950F90DF91CF910895CF9371
:1007E000DF931F92CDB7DEB7DC01ED91FC91008C59
:1007F000F18DE02D41E050E0BE016F5F7F4F099524
:10080000181619061CF4898190E002C08FEF9FEF43
:100810000F90DF91CF91089580E090E0089581E0FE
:100820000895CF93C62F672F8BE090E00E945D0361
:100830006C2F8CE090E00E945D0363E080E090E02C
:100840000E945D0381E0CF9108956FEF80E090E01A
:100850000E945D0362E080E090E00E945D0380E022
:1008600090E0089560E085EE97E00E945D0360E00F
:1008700086EE97E00C945D03EF92FF920F931F9327
:10088000CF93DF9300D0CDB7DEB7FB010281138198
:10089000F480E58061E080E090E04A8359830E9423
:1008A0005D03602F8DE090E00E945D03612F8EE07C
:1008B00090E00E945D036F2D8FE090E00E945D0349
:1008C0006E2D80E190E00E945D035981652F81E1EA
:1008D00090E00E945D034A81642F82E190E00E94D3
:1008E0005D0381E090E00F900F90DF91CF911F9119
:1008F0000F91FF90EF9008958F929F92AF92BF92C9
:10090000CF92DF92EF92FF920F931F93CF93DF93DB
:1009100000D0CDB7DEB77A0183E190E069837A83B6
:100920000E946103182F84E190E00E946103212F4F
:1009300030E0322F22274901882A6981062F7A81E7
:10094000172F640185E1C80ED11C5801AE0CBF1CE5
:100950000A151B0551F0F80161918F01C6010E9433
:100960005D03FFEFCF1ADF0AF3CFE80CF91C6F2D00
:1009700083E190E00E945D036E2D84E190E00E948F
:100980005D0380E090E00F900F90DF91CF911F9179
:100990000F91FF90EF90DF90CF90BF90AF909F901E
:1009A0008F9008958F929F92AF92BF92CF92DF92D5
:1009B000EF92FF920F931F93CF93DF9300D0CDB7A9
:1009C000DEB77A0187EE97E069837A830E9461033C
:1009D000082F88EE97E00E94610310E0102F002797
:1009E000082B85EE97E00E946103D82E86EE97E0F3
:1009F0000E9461032D2D30E0322F2227282B490140
:100A0000801A910A69817A818E149F0408F0470147
:100A1000680187E1C81A88EFD80A7B015B01A80C3E
:100A2000B91CEA14FB0451F0C6010E946103F701EE
:100A300081937F01FFEFCF1ADF0AF3CF080D191D55
:100A4000612F87EE97E00E945D03602F88EE97E0AC
:100A50000E945D03C4010F900F90DF91CF911F9111
:100A60000F91FF90EF90DF90CF90BF90AF909F904D
:100A70008F900895AF92BF92CF92DF92EF92FF9244
:100A80000F931F93CF93DF93CDB7DEB728970FB6A1
:100A9000F894DEBF0FBECDBF6C0185EE97E00E94DB
:100AA0006103A82E86EE97E00E946103E82E87EE90
:100AB00097E00E946103B82E88EE97E00E946103E0
:100AC000F82E80E190E00E946103082F8FE090E013
:100AD0000E946103282F8EE090E028870E94610326
:100AE000482F8DE090E04F830E946103682F288596
:100AF0004F81CE0101960E945B068B819C81AD8166
:100B0000BE81F601808B918BA28BB38B81E190E04B
:100B10000E946103182F82E190E00E946103212F5F
:100B200030E0322F2227282BF601358B248B4E2DD7
:100B300050E0CA019A292F2D30E03B29821B930BEC
:100B400028960FB6F894DEBF0FBECDBFDF91CF91D0
:100B50001F910F91FF90EF90DF90CF90BF90AF90DB
:100B60000895CF93DF93EC011B821A8288EE93E005
:100B7000A0E0B0E08C839D83AE83BF838CE091E0E6
:100B800099838883CE010E960E94510684E0888F57
:100B9000DF91CF910895CF93DF93CDB7DEB7A997BB
:100BA0000FB6F894DEBF0FBECDBFCE0101960E94F6
:100BB0005106CE0109960E94B105CE0184960E948D
:100BC00051066BEA71E082EE91E00E94200998954F
:100BD00080E090E0A9960FB6F894DEBF0FBECDBFBF
:100BE000DF91CF9108950F9300E020E040E060E0B6
:100BF0008DEC91E00E945B060F91089546B767B7B0
:100C000028B739B7862F90E0A0E0B0E0DC01992743
:100C10008827B42B832BBC01CD01722B08958F92B2
:100C20009F92AF92BF92CF92DF92EF92FF920F937B
:100C30001F93CF93DF937C018B016C0182E0C80E80
:100C4000D11C4701E5E08E0E911CC0E0D0E0F6011A
:100C500061916F014AE050E0C8010E94E9095C011E
:100C60006EE2C8010E9415098A0D9B1DC80FD91F8D
:100C7000C814D90461F74AE050E0F7016581C80162
:100C80000E94E9098C0F9D1FDF91CF911F910F9159
:100C9000FF90EF90DF90CF90BF90AF909F908F909C
:100CA000089522E331E0FC01318320831282138214
:100CB0001482158208950F93FC0182E391E09183E1
:100CC000808362834383248305830F910895E3ED3A
:100CD000F1E082E391E09183808312821382148297
:100CE000158208951F920F920FB60F9211242F9321
:100CF0003F938F939F93AF93BF938091DA0190912D
:100D0000DB01A091DC01B091DD013091D90123E03C
:100D1000230F2D3720F40196A11DB11D05C026E833
:100D2000230F0296A11DB11D2093D9018093DA01F2
:100D30009093DB01A093DC01B093DD018091DE0193
:100D40009091DF01A091E001B091E1010196A11D18
:100D5000B11D8093DE019093DF01A093E001B09379
:100D6000E101BF91AF919F918F913F912F910F9092
:100D70000FBE0F901F901895789484B5826084BD43
:100D800084B5816084BD85B5826085BD85B581608F
:100D900085BDEEE6F0E0808181608083E1E8F0E0EF
:100DA0001082808182608083808181608083E0E81E
:100DB000F0E0808181608083E1EBF0E080818460FD
:100DC0008083E0EBF0E0808181608083EAE7F0E0FF
:100DD0008081846080838081826080838081816063
:100DE00080838081806880831092C1000895FC0117
:100DF000918D228D892F90E0805C9F4F821B9109FD
:100E00008F7399270895FC01918D828D981731F089
:100E1000828DE80FF11D858D90E008958FEF9FEF93
:100E20000895FC01918D828D981761F0828DDF010C
:100E3000A80FB11D5D968C91928D9F5F9F73928FCD
:100E400090E008958FEF9FEF08958AE798E0892B4F
:100E500049F080E090E0892B29F00E947A08811106
:100E60000C9400000895FC01848DDF01A80FB11DD2
:100E7000A35ABF4F2C91848D90E001968F739927D0
:100E8000848FA689B7892C93A089B1898C918064BD
:100E90008C93938D848D981306C00288F389E02D7E
:100EA00080818F7D80830895CF93DF93EC01888DBF
:100EB0008823C9F0EA89FB89808185FD05C0A8895E
:100EC000B9898C9186FD0FC00FB607FCF5CF8081E4
:100ED00085FFF2CFA889B9898C9185FFEDCFCE012E
:100EE0000E943307E7CFDF91CF910895EF92FF92F1
:100EF0000F931F93CF93DF93EC0181E0888F9B8D3D
:100F00008C8D981305C0E889F989808185FD24C0FE
:100F1000F62E0B8D10E00F5F1F4F0F731127E02E81
:100F20008C8DE8120CC00FB607FCFACFE889F9895E
:100F3000808185FFF5CFCE010E943307F1CF8B8DE5
:100F4000FE01E80FF11DE35AFF4FF0820B8FEA8993
:100F5000FB898081806207C0EE89FF896083E88910
:100F6000F98980818064808381E090E0DF91CF9176
:100F70001F910F91FF90EF900895CF92DF92EF9223
:100F8000FF921F93CF93DF93EC016A017B01122F35
:100F9000E889F98982E080834115514E6105710528
:100FA000B1F060E079E08DE390E0A70196010E9446
:100FB000170ADA01C9010197A109B109B695A795E8
:100FC00097958795AC01411580E15807A8F0E8890D
:100FD000F989108260E874E88EE190E0A70196013B
:100FE0000E94170ABA01A90141505109610971090A
:100FF0007695679557954795EC85FD855083EE85E9
:10100000FF854083188EEC89FD891083EA89FB896E
:10101000808180618083EA89FB8980818860808308
:10102000EA89FB89808180688083EA89FB898081E5
:101030008F7D8083DF91CF911F91FF90EF90DF90A4
:10104000CF9008951F920F920FB60F9211242F93F5
:101050008F939F93EF93FF93E091F201F091F3014F
:101060008081E091F801F091F90182FD12C0908138
:101070008091FB018F5F8F732091FC01821751F0EB
:10108000E091FB01F0E0EE51FE4F958F8093FB0164
:1010900001C08081FF91EF919F918F912F910F90CF
:1010A0000FBE0F901F9018951F920F920FB60F92C0
:1010B00011242F933F934F935F936F937F938F935D
:1010C0009F93AF93BF93EF93FF9382EE91E00E94C3
:1010D0003307FF91EF91BF91AF919F918F917F91D6
:1010E0006F915F914F913F912F910F900FBE0F9095
:1010F0001F90189582EE91E00E94F70621E0892B5F
:1011000009F420E0822F0895E2EEF1E013821282CA
:1011100088EE93E0A0E0B0E084839583A683B78354
:1011200088E391E09183808385EC90E095878487C4
:1011300084EC90E09787868780EC90E0918B808BA1
:1011400081EC90E0938B828B82EC90E0958B848B8A
:1011500086EC90E0978B868B118E128E138E148EF8
:101160000895CF92DF92EF92FF920F931F93CF9348
:10117000DF936C017A018B01C0E0D0E0CE15DF0572
:1011800089F0D8016D918D01D601ED91FC9101900E
:10119000F081E02DC6010995892B11F47E0102C072
:1011A0002196ECCFC701DF91CF911F910F91FF9056
:1011B000EF90DF90CF9008956115710579F0FB01F4
:1011C00001900020E9F73197AF01461B570BDC0176
:1011D000ED91FC910280F381E02D099480E090E094
:1011E0000895EF92FF920F931F93CF93DF938C019B
:1011F0007B01C0E0D0E0F701EC0FFD1F6491662396
:1012000061F0D801ED91FC910190F081E02DC801D1
:101210000995892B11F02196EECFCE01DF91CF9168
:101220001F910F91FF90EF900895DC01ED91FC91DB
:101230000190F081E02D099464E471E00C94DC08E5
:101240000F931F93CF93DF93EC010E94F1088C0161
:10125000CE010E941C09800F911FDF91CF911F9139
:101260000F9108954F925F926F927F92EF92FF924B
:101270000F931F93CF93DF93CDB7DEB7A1970FB630
:10128000F894DEBF0FBECDBF7C01FA01CB0119A2DD
:10129000223008F42AE08E010F5D1F4F422E512CA0
:1012A000612C712CBF01A30192010E94170AF90160
:1012B000CA01015011096A3014F4605D01C0695C13
:1012C000D8016C93232B242B252B61F7B801C70180
:1012D0000E94DC08A1960FB6F894DEBF0FBECDBF0A
:1012E000DF91CF911F910F91FF90EF907F906F90C2
:1012F0005F904F900895CF92DF92EF92FF920F93FD
:101300001F93CF93DF93EC016A017B012115310517
:1013100079F4E881F9810190F081E02D642FDF916B
:10132000CF911F910F91FF90EF90DF90CF90099494
:101330002A303105E9F477FF1AC06DE20E941509E1
:101340008C0144275527BA014C195D096E097F09A4
:101350002AE0CE010E943209800F911FDF91CF91C8
:101360001F910F91FF90EF90DF90CF9008952AE0AA
:10137000B701A601CE01DF91CF911F910F91FF9090
:10138000EF90DF90CF900C9432090F931F93CF937F
:10139000DF93EC019A01AB01770F660B770B0E948C
:1013A0007B098C01CE010E941C09800F911FDF91E7
:1013B000CF911F910F9108952115310541F4DC0162
:1013C000ED91FC910190F081E02D642F09940C9433
:1013D00032099A01462F50E060E070E00C94DC097D
:1013E0000F931F93CF93DF93EC010E94DC098C01D4
:1013F000CE010E941C09800F911FDF91CF911F9198
:101400000F91089570E09B01382BC901089508954C
:101410000E94BC060E94070A0E942702C5E2D7E08C
:101420000E94CF022097E1F30E942507F9CFA1E2A5
:101430001A2EAA1BBB1BFD010DC0AA1FBB1FEE1F4E
:10144000FF1FA217B307E407F50720F0A21BB30B99
:10145000E40BF50B661F771F881F991F1A9469F715
:1014600060957095809590959B01AC01BD01CF0171
:101470000895EE0FFF1F0590F491E02D0994F89464
:02148000FFCF9C
:10148200B82200AABBCCDE0100000000D9037C0414
:10149200D103EF030C0432041104D8033C04CB053E
:1014A20025043A05D204B603BD03CD030F040000A0
:1014B20000000F06000000007607B108F7061107CA
:1014C200030754070D0A006E616E00696E66006FB5
:0614D2007666002E00000A
:00000001FF
